:020000040800F2
:100000000002002091010008D10E000893010008B1
:100010009301000893010008930100089301000870
:100020009301000893010008930100089301000860
:100030009301000893010008930100089301000850
:100040009301000893010008930100089301000840
:100050009301000893010008930100089301000830
:100060009301000893010008930100089301000820
:100070009301000893010008930100089301000810
:10008000E1100008930100089301000893010008A3
:1000900093010008930100089301000893010008F0
:1000A00093010008930100089301000881130008E0
:1000B000F111000891130008930100089301000852
:1000C00072B6244880F30888234880F30988022008
:1000D00080F31488BFF36F8F01F0A2F900F048FF9E
:1000E0001E481F491B4A914202DA08600431FAE7B0
:1000F0001C49194A914202DA08600431FAE71A49A8
:100100001A4A1B4B9A4204DA086810600431043220
:10011000F8E700201749184A914202DA08600431D2
:10012000FAE701F03DF901F073F9144C144DAC42BB
:1001300003DA216888470434F9E700F079FC114CB0
:10014000114DAC4203DA216888470434F9E70F49BE
:1001500008470000000200200004002055555555B6
:10016000000000200002002000160008000400200B
:100170000004002000040020B8070020C000000890
:10018000C0000008C0000008C000000801140008FA
:1001900096E700F000F8FEE7F0B544464D465646B7
:1001A0005F46F0B46B46CB60C3689D46F0BCA0468A
:1001B000A946B246BB46F0BD62B6281CA047002047
:1001C00000F08EFEFEE700F0B3FE024A024B136021
:1001D000FEE7C04604ED00E0000000800022430876
:1001E0008B4274D303098B425FD3030A8B4244D3FF
:1001F000030B8B4228D3030C8B420DD3FF22090241
:1002000012BA030C8B4202D31212090265D0030BFF
:100210008B4219D300E0090AC30B8B4201D3CB03F5
:10022000C01A5241830B8B4201D38B03C01A524137
:10023000430B8B4201D34B03C01A5241030B8B4239
:1002400001D30B03C01A5241C30A8B4201D3CB0224
:10025000C01A5241830A8B4201D38B02C01A524109
:10026000430A8B4201D34B02C01A5241030A8B420C
:1002700001D30B02C01A5241CDD2C3098B4201D324
:10028000CB01C01A524183098B4201D38B01C01AA2
:10029000524143098B4201D34B01C01A5241030919
:1002A0008B4201D30B01C01A5241C3088B4201D3C8
:1002B000CB00C01A524183088B4201D38B00C01A75
:1002C000524143088B4201D34B00C01A5241411A9C
:1002D00000D20146524110467047FFE701B50020A9
:1002E00000F006F802BDC0460029F7D076E7704757
:1002F0007047C04600000000000000000000000041
:10030000FEE7C04600000000000000000000000002
:1003100030B572B6074C65682B1A484218402368FE
:10032000821A9A4204D3954202D3626062B630BD0B
:100330000020FBE71806002000000000000000007D
:10034000C021024A13680B43136070470044004009
:1003500072B6EFF30983203B83F3098880225204AD
:10036000DA61064A1168D26889689268914202D9B6
:10037000034A9A617047034AFBE7C04660040020C5
:10038000C7010008CA0100080000000000000000CA
:10039000074A10B55468231A484218401368984217
:1003A00003D3844201D3506010BD0020FCE7C04657
:1003B00018060020000000000000000000000000FF
:1003C0000D4A70B594460322FF25C0260240D20094
:1003D00095408901914083089B006344B6009C5975
:1003E0006246AC430C439C510123C0218340490029
:1003F0005350136070BDC04600E100E000000000F3
:10040000481E411E88411323404298437047C0460E
:100410001A4B30B51C001034998344601C6982600B
:10042000046060601861FF20000282420FD9020060
:1004300013488C18A4B24463002404610234C460DD
:10044000446AA4B2651AADB2AA4204D930BD022AE8
:10045000EED20222ECE702220132891889B241630E
:10046000456AADB2291B89B2914204D20122596B6F
:100470000A435A63EAE721002C00EDE760040020FC
:100480000004004000000000000000000000000028
:1004900072B62823CB5C0C2B0BD8114A9B00D35887
:1004A0009F46CA6A9368013393604A680B68136079
:1004B0005A60012300225B42CB622933CA548B6904
:1004C0008A681B6898689042FBD25A680B604A6041
:1004D0001160596062B670470022CB6A1A60E8E783
:1004E000C814000800000000000000000000000028
:1004F00028230022C254836982681B68996891424C
:10050000FBD25A6803604260106058607047C04672
:10051000F0B5C646184E05007468043600B5B442FE
:1005200022D000232827984604E00B2A1FD02468F5
:10053000B44219D0E3682B43E360002D02D0236955
:100540002B42F4D06068A368C26B1343C363C25DDF
:100550000A2AEAD1C26A1A42E9D04346C362FFF7C7
:10056000C7FF2468B442E5D180BCB846F0BDC26A7A
:1005700013409A42DBD1F0E70004002000000000A5
:10058000FF231B0299420BD91900114A43189BB251
:100590005363536A9BB2181A80B2814204D97047E0
:1005A0000229F2D20221F0E702210131581880B26B
:1005B0005063506A80B2C31A9BB28B4205D20123AA
:1005C000044A516B0B435363E9E70300EDE7C04670
:1005D0000004004060040020000000000000000053
:1005E0002822074B10B5D9688854186804686360DE
:1005F0001C6001248454D860FFF7CEFD10BDC046B6
:100600006004002000000000000000000000000066
:10061000F0B5C64600B53B4E0700F36886B0984675
:100620004B1C49D06D4643462B61374B3200EB6083
:1006300000236B61354B1032586A336980B29342A4
:1006400057D0B28B821A92B28C18A24200D90C00F9
:100650009A68A24207D9FFF793FF33699A68A242CA
:1006600004D21B68A41A9A68A242FAD35A68AC60F2
:100670006A60009315609A685D60141B9C6001239A
:100680005B42B3613800FFF7ABFF009B002B0DD03E
:100690003269AA4213D099686A688C4613605A601E
:1006A000AA6862449A6001235B42B3614346D86AF8
:1006B00006B080BCB846F0BDFFF792FFF6E7310008
:1006C000103133615960002332692B608A4216D0A1
:1006D0009168AB688C46634493600C4AB18B506A56
:1006E00080B2411A89B28B42E0D9591AFFF748FF0C
:1006F000DCE70A0001002800FFF78AFEC2E7034A90
:10070000D360D3E760040020910400080004004097
:1007100010B572B602490820FFF77AFF62B610BD25
:10072000881300000000000000000000000000002E
:1007300070B5902420262025054B064ADB68E40589
:10074000DA616583FFF7E4FF2683FFF7E1FFF8E74F
:1007500060040020FC1400080000000000000000FD
:10076000084B10B5DB68002908D0426818605A6051
:10077000136043600420FFF74BFF10BD012040428F
:10078000FBE7C046600400200000000000000000FD
:1007900070B504000E00150072B605E029002000B7
:1007A000FFF7DEFF002817DBA368002BF6D0A36855
:1007B000013BA36063695A1C62611E706369226910
:1007C000934201D3E3686361E369002B01D0200009
:1007D000984762B6002070BD62B6FCE700000000DA
:1007E00010B53030FFF7D4FF10BDC0460000000048
:1007F000012210B530305242FFF7CAFF10BDC0468B
:1008000070B505000C0072B605E021002800FFF766
:10081000A7FF002816DBAB68002BF6D0AB68AA69EF
:10082000013BAB60531CAB6114782A69934201D33E
:10083000EB68AB61EB69002B01D02800984762B6EA
:10084000200070BD62B6FCE7000000000000000060
:1008500010B50C30FFF7D4FF10BDC04600000000FB
:10086000012110B50C304942FFF7CAFF10BDC04648
:10087000F0B5DE464E4645465746E0B59B46C36951
:1008800083B0040088469946019272B6171E27D09D
:10089000A3683D009F4200D9A568606923691E1ABC
:1008A000AE423AD825D23200414600F0BBFD3100BD
:1008B000AB1B9A461A00E068414400F0B3FDE368C0
:1008C00053446361A3685B1BA3604B46002B01D0BC
:1008D0002000C84762B67F1BA84472B6002FD7D14C
:1008E000019862B603B0F0BCBB46B246A946A0462A
:1008F000F0BD2A00414600F095FDE3686361A368FE
:100900005B1BA360002DE0D159462000FFF728FFB4
:100910000028BDD0019BD81BE3E72A00414600F028
:1009200081FD63695B196361E9E7C046000000006F
:1009300010B53030FFF79CFF10BDC046000000002E
:10094000012310B530305B42FFF792FF10BDC04667
:10095000F0B5DE464E4645465746E0B59B46C36970
:1009600083B0040088469946019272B6171E27D0BC
:10097000A3683D009F4200D9A568A16923695E1A5A
:10098000AE423AD825D23200404600F04BFD30004E
:10099000AB1B9A461A00E168404400F043FDE3684F
:1009A0005344A361A3685B1BA3604B46002B01D09B
:1009B0002000C84762B67F1BA84472B6002FD7D16B
:1009C000019862B603B0F0BCBB46B246A946A04649
:1009D000F0BD2A00404600F025FDE368A361A3684E
:1009E0005B1BA360002DE0D159462000FFF7B8FE45
:1009F0000028BDD0019BD81BE3E72A00404600F049
:100A000011FDA3695B19A361E9E7C046000000007E
:100A100010B50C30FFF79CFF10BDC0460000000071
:100A2000012310B50C305B42FFF792FF10BDC046AA
:100A3000F64BF0B5996ADE4657464E464546F44AAF
:100A4000E0B50A43BC219A629A6AC9030A409A62D5
:100A50009A6A1A690122002152421A611A691961BF
:100A60001A69D868EB4A83B002438020DA60DA68FA
:100A7000C0030240DA60DA688022D8695205024376
:100A8000DA61DA698022E448520004682243026095
:100A9000C0201A6A800002400138FF38824203D029
:100AA000802252021A6219628022D84B1202196AFD
:100AB000114207D18021186A890001431962196A1D
:100AC0000A431A6203210520FFF77AFC032106205E
:100AD000FFF776FC03210720FFF772FC03211B20A0
:100AE000FFF76EFC03211C20FFF76AFC03211D2089
:100AF000FFF766FCC94DCA4A2B0004C36B602B008C
:100B000002220C33EB602B61C64B9146AB616B62EA
:100B10002B621033EB612B00303300272B636B63A8
:100B20001023012148466F61AB63BF4BB74EEB63A7
:100B3000AB646B6410332B64BC4B2972EB64BC4B0D
:100B4000AF626B65BB4BED62AB65F3692D6513431B
:100B5000B94AF361F369936803439360B74B0E306E
:100B60009A465246B64B9362B64BD362976157632F
:100B7000D7605760516111600131FFF721FCB24924
:100B8000B24BB34A19605A60B24B521A9A601A00BB
:100B9000B1481432186059601F615A619A61DF616F
:100BA000DF60AE4B04211A0010321A6114221800C3
:100BB0009A61AB4A24301A629A631A00586218008C
:100BC0003C32DA6328301A0098621C2040329F6061
:100BD0005F61D961DF62186359631B605B601A64EF
:100BE0001A00A04C44325A649F4BA04A2763A36367
:100BF0009F49136A0B4013622200012310322261C5
:100C0000626152465B42A7606763A361516A00223A
:100C10008BB20093002301930098019920626162D6
:100C200028208446A4446046206520008832A150D4
:100C3000E167A1678F496C30A165E0662100200063
:100C4000083A4C317030A7836264A250A1622067D9
:100C5000246064606465606720003C30E060864822
:100C60000123E065854820660120824664205746BE
:100C7000235202302754B0278148C0513037BB4639
:100C800083445B462C3FC3516C239B4683445F46A1
:100C90003033C7507B4BC367002383507A4B0C32F1
:100CA0008350984601230C328350103284502C32EA
:100CB00083500023043A8350043A83504A46B823B1
:100CC000C25252460233C254704A0E3BC250624670
:100CD0000C3BC2500433C15003000200A033E36454
:100CE000E362C023C032C2500300C422C433835025
:100CF000043283509030FFF7FBFB62B672B62B7A5A
:100D0000012B05D18023F2699B021343F361F36940
:100D10009622D20194469621AB6D090263441800D5
:100D2000FFF75CFA2E22002301216E6DFF32F06086
:100D30007360B16032602F3AFF3A32625C20022663
:100D40002A542E7262B672B6514822320500FF3222
:100D500051358050FF35043285500500183ADC3596
:100D600085504C4D203A8550454604328C2783509F
:100D70000C32855080257F00C4510C322C378550B1
:100D8000C551C0354351043D4351143D46532936A6
:100D9000FF368155404E1C31FF31465026000C393C
:100DA00028364650E66A0431465001001131FF31C1
:100DB00031600600E16298213136FF364900465025
:100DC00001009A263531FF31760081510436815178
:100DD000E1680C3E835186588A68964264D928257A
:100DE0004B558B691B689D68AA42FBD35A680B6000
:100DF0004A6011605960942301225B00C2540130A3
:100E0000FF30E060FFF7C8F948E0C046001002403C
:100E1000FFFFA1FFFFFFBFFF0070004000040020A4
:100E2000D81500084406002054060020410300089D
:100E300000440040006CDC02005801400004004007
:100E4000BF120000FFFF0000B807002018060020B6
:100E5000004000202006002011030008D0050020DB
:100E600091030008600400201815000800ED00E060
:100E7000FFFF00FF2C1500080002002000040020E6
:100E8000F004002001030008B9010008041500085F
:100E900068060020310700080C15000862B60A4CED
:100EA0002369FFF735FCFBE743552468A3689E429E
:100EB000FBD980235B00C45062680433C250034BEB
:100EC00013606360EAE7C046000800486807002036
:100ED000EFF30983203383F3098862B67047C04675
:100EE00070B572B6114BDC682500E062206B3035BE
:100EF000854207D12A23E35C002B0ED00F20FFF799
:100F00006FFB70BD03682363FFF7F2FA206BA84202
:100F1000F8D12A23E35C002BF0D12933E35C9B0753
:100F2000ECD16269236913605A60E7E7600400202E
:100F30000D4B10B51868D9680268012453601A6017
:100F4000D8602822002384548B548B698A681B68DC
:100F50009C689442FBD85A680B604A6011605960E3
:100F6000FFF71AF910BDC046600400200000000021
:100F7000BC234C4ADB03916A70B519439162916AB4
:100F80004948012401409162916A516947480B43E5
:100F90005361902153690023C9054B608860444820
:100FA0008026C8604348444D48618820400108625B
:100FB00042484B6208604249424864424B608C6040
:100FC000CD6048610B624B620E603F493F4E4B6003
:100FD0008C60CE6048610B624B620B603C494B6099
:100FE0008C60CD6048610B624B620B6039494B608D
:100FF0008C60394CCC6048610B624B620B60012104
:1010000013680B431360022311680B42FCD00321C9
:1010100053688B4353600C22224B100059680840E0
:101020000A42FAD1F92219680A4001211A6058606F
:101030005A6B0A435A6302221A4B596B0A42FCD07C
:1010400001215A6A0A435A620222164B596A0A421D
:10105000FCD0A02100228903DA6259601A63802241
:10106000196852040A431A6080230E4A9B041168CF
:101070001942FCD01122194B1A60103A19680A4221
:10108000FCD00221074B5A680A435A600A315A6859
:101090000A40082AFBD101219A690A439A619B6997
:1010A00070BDC04600100240FFFFA1FF5FF7FFFFC9
:1010B00005515565DFFF000055555555A004002822
:1010C00000040048FFFF0000000800485555550186
:1010D000000C0048001400485055555500200240AF
:1010E000F0B5574645464E46E0B43F4F75463B691E
:1010F000FA681A40FF231340DB433B61930708D48F
:101100000F3501D0FFF724F9E0BCBA46B146A84636
:10111000F0BD72B600239846344E10239946B14470
:1011200008E062B620002169E368984772B66369F7
:10113000002B18D1786A3469B38B80B2C21AA168C7
:1011400092B28A4231D35B189BB2B38362689A46EB
:10115000236813605A604346236033694B45E0D1EE
:101160004346FB60DDE7796A8AB2914652464946BA
:101170008A1A92B2934223D310218C463069B44428
:10118000604502D127E000689B1A82689A42FAD330
:101190004268A36062602060146082684460D31A71
:1011A000836001235B42B361B7E7330010339C4295
:1011B00004D0891AB083A160FFF7E2F962B69FE715
:1011C0000223716B30690B43736333001033984211
:1011D00007D01300D9E79A1A49462000FFF718F9FB
:1011E000ECE70022F8E7C04600040040600400205D
:1011F000F8B54D465F4656464446F0B45E4CF1465F
:10120000666D3768F56935622B0700D092E0AB0652
:101210003ED55C239A46503B9846A0441EE0236A84
:10122000626A934229D06269013262615A1C226269
:101230001D70236AE269934201D3A3692362E068C7
:10124000404507D042460368E3605A600023C3620A
:10125000FFF74EF962B6F569AB0619D572B653467B
:10126000B58CE35C1D406369002BD8D10420FFF7E7
:101270004FF9236A626A9342D5D16269002AD2D0BB
:1012800080200001FFF744F962B6F569AB06E5D4AA
:1012900080233B4236D02B4234D030239846002363
:1012A0009B4680339A46A0441CE0A26B0132A263A5
:1012B0005A1CA2641D78236C9A4201D3E36BA36489
:1012C000206B404507D04246036823635A605B4663
:1012D000C362FFF70DF9ADB2358562B65346F569C5
:1012E0002B420FD072B6A36C626C9A42DDD1A26B16
:1012F000002ADAD00820FFF70BF980233A009A433E
:10130000326062B6402398463B420AD14B460F33C7
:1013100001D0FFF71DF8F0BCBB46B246A946A04677
:10132000F8BD2B42F2D072B6636CA26C934219D016
:1013300062B6EBE70823180028402B4201D080203A
:101340004000EB0701D520231843AB0701D540230C
:1013500018436B0701D58023184372B6FFF7D8F8FE
:1013600062B654E7A36B002BE2D01020FFF7D0F851
:1013700043469F433760DBE7000400200000000085
:10138000734610B50F3301D0FEF7E2FF10BDC04623
:1013900010B5FFF7F5FF10BD0000000000000000D1
:1013A00080229446F0B50025104E114C1149124B85
:1013B0001248B44499420DD91A0080C880C29142A3
:1013C000FBD80139C91A8908013189005B189C4290
:1013D00002D920C39C42FCD81036664504D0306840
:1013E0007368B168F468E5E7F0BDC04658150008B9
:1013F000B8070020B8070020B80700200016000832
:10140000FEE7C046000000000000000000000000F1
:101410007047C0460000000000000000000000000F
:101420007047C046F0B5C64600B50F2A41D903271C
:101430000D003E0005430C0003002E402F423DD11D
:101440001500103D2D09AC462D01A84680442568A5
:1014500067681D605F60A568E7689D60DF601034A5
:101460001F0010334745F2D165460F230C24013588
:101470002D01491913404519144222D08C59AC5101
:1014800004369C1B032CF9D80324043B9B0801332E
:101490009B002240ED18C918561E002A06D00023D2
:1014A000CC5C1A00EC5401339642F9D180BCB846AA
:1014B000F0BD0500561E002AF1D1F7E70500561EC3
:0814C000EDE71A00F6E7C04653
:1014C800D4040008B2040008B2040008D8040008D4
:1014D800AA040008A2040008B2040008AA0400082C
:1014E800B2040008B2040008B2040008B2040008FC
:1014F800AA040008626C696E6B65720069646C65A9
:10150800000000006E6F6E616D65000063300000C2
:10151800141500080002002000040020F004002038
:10152800D00500206D61696E002C403804024C081B
:101538000C10141C2028292A000000000000240494
:101548000100040000000000000C001028303400E6
:1015580000160008B8070020B8070020B8070020C8
:101568000016000800000000000000000000000055
:101578000016000800000000000000000000000045
:101588000016000800000000000000000000000035
:101598000016000800000000000000000000000025
:1015A8000016000800000000000000000000000015
:1015B8000016000800000000000000000000000005
:1015C80000160008000000000000000000000000F5
:1015D8000000000041090008210A0008F10700087E
:1015E80061080008E10700085108000831090008EF
:0815F800110A000801040008BB
:04000005080001915D
:00000001FF
