:020000040800F2
:100000000002002091010008D17900089301000846
:100010009301000893010008930100089301000870
:100020009301000893010008930100089301000860
:100030009301000893010008930100089301000850
:100040009301000893010008930100089301000840
:100050009301000893010008930100089301000830
:100060009301000893010008930100089301000820
:100070009301000801430008314300089301000880
:100080006143000893010008930100083142000811
:1000900093010008930100089301000893010008F0
:1000A000930100089301000893010008213F000814
:1000B000413F0008713F00089301000893010008C8
:1000C00072B6244880F30888234880F30988022008
:1000D00080F31488BFF36F8F02F092FF04F018FED4
:1000E0001E481F491B4A914202DA08600431FAE7B0
:1000F0001C49194A914202DA08600431FAE71A49A8
:100100001A4A1B4B9A4204DA086810600431043220
:10011000F8E700201749184A914202DA08600431D2
:10012000FAE702F085FF02F073FF144C144DAC4265
:1001300003DA216888470434F9E709F019FC114C07
:10014000114DAC4203DA216888470434F9E70F49BE
:1001500008470000000200200004002055555555B6
:10016000000000200002002028C000080004002039
:100170004009002040090020E0120020C0000008D3
:10018000C0000008C0000008C000000821300008BE
:1001900096E700F000F8FEE7F0B544464D465646B7
:1001A0005F46F0B46B46CB60C3689D46F0BCA0468A
:1001B000A946B246BB46F0BD04F0C2FE62B6281C9A
:1001C000A047002006F0C4FAFEE704F091FE05F017
:1001D0006FFE04F0B5FE024A024B1360FEE7C04614
:1001E00004ED00E0000000808446101C62468C464E
:1001F000191C634600E0C0461FB501F00FFD002842
:1002000001D40021C8421FBD10B501F059FC404285
:10021000013010BD10B501F001FD002801DB002008
:1002200010BD012010BDC04610B501F0F7FC00283C
:1002300001DD002010BD012010BDC04610B501F049
:100240007BFC002801DC002010BD012010BDC04651
:1002500010B501F071FC002801DA002010BD01206A
:1002600010BDC0468446081C6146FFE71FB500F07C
:1002700043FA002801D40021C8421FBD10B500F088
:10028000C7F94042013010BD10B500F035FA002822
:1002900001DB002010BD012010BDC04610B500F0EC
:1002A0002BFA002801DD002010BD012010BDC04642
:1002B00010B500F0D5F9002801DC002010BD0120A8
:1002C00010BDC04610B500F0CBF9002801DA0020BF
:1002D00010BD012010BDC046F0B54646D6464F467B
:1002E0004D024202C0B5520A6E0A4700B0463F0EA8
:1002F0004E00C40FD00094463B008246360EC90F14
:10030000AD098C426DD0B81B814600284DDD002E12
:1003100000D188E0FF2F5AD08023DB041D434B46D9
:1003200001221B2B0ADC2B004A464946D3402022DF
:10033000521A95402A00551EAA411A4353469A1A4A
:10034000530100D4B9E092019609300002F0C6FBD7
:1003500005388640874200DDD4E03300C71B2020EB
:100360000137FB40C71BBE403200561EB24100277A
:100370001A43530704D00F231340042B00D0043238
:10038000530100D49CE07B1CFE2F00D19AE0920127
:10039000520A9446DBB2D8056346E407184320436B
:1003A000E0BCBA46B146A846F0BD002849D0F31BD0
:1003B000002F00D0B6E05246002A60D0013B002B4F
:1003C00000D1FCE0FF2E00D0B4E00C004246002A31
:1003D00078D08020C00310434202530A9C46FF237A
:1003E000D9E7B91B002971DD002E3FD0FF2FEED0D9
:1003F0008023DB041D4301221B2907DC2A00202364
:10040000CA40591A8D406B1E9D412A4352445301E4
:1004100053D50137FF2F55D001237B491340520894
:100420000A401A43A5E7002D2CD001235B429C46CD
:10043000E1444B46002B00D1ADE0FF2F00D06EE72A
:10044000C5E7FE207E1C304260D1002F00D093E033
:100450005246002A00D1B6E0002D9CD0521B50011C
:1004600000D4C3E053460C00EA1A82E7002D09D0FD
:100470000139002900D18BE0FF2FBCD1A7E70C0088
:1004800042463700FF2FA2D05202530A9C46FBB2CD
:1004900081E7FE210137394265D1002B7ED100284A
:1004A00000D1AAE0002D00D175E72A0052440027B0
:1004B000530102D5554B01371A40530700D05AE774
:1004C000D208DFE70022FF23944664E70029E0D04A
:1004D000F31B002F3ED0FF2E00D177E780220100D2
:1004E000D20411438A4601221B2B08DC52462021EC
:1004F0005046DA40CB1A9840431E984102433700D9
:10050000521984E7414A3F1A324032E753465E1B94
:1005100073012DD4002E00D017E700220024002301
:10052000944638E7FF2E00D14FE780225046D20490
:100530001043824601221B2B08DC524620245046E1
:10054000DA40E31A9840431E984102430C003700FA
:10055000AA1AF5E6002893D0013B002B4FD0FF2EBE
:10056000C1D1424633E7FF2FACD055446A08A4E717
:1005700053460C00EE1AE8E65346002B28D1002D16
:1005800000D022E78023DB039C460024FF2302E700
:100590002A0052443BE753465A1BD1E6002800D1BB
:1005A00014E7002D00D112E78023DB031A4200D1AB
:1005B0000DE74146194200D009E7424607E70C0023
:1005C0003700AA1ABCE6002D13D00C00C446E2E6A0
:1005D000002D00D1FBE68023DB031A4200D1F6E6B2
:1005E0004046184200D0F2E60C00EFE6002A00D0A8
:1005F00063E7002200249446CDE6C446CBE62A00F9
:100600003700524403E7C046FFFFFF7DFFFFFFFBBB
:1006100070B542004E024C0045026D0A120EC30F27
:10062000760A240EC90FFF2A0FD0FF2C11D001200B
:10063000A24200D070BDB542FCD18B420DD0002A41
:10064000F8D12800451EA841F4E70120002DF1D182
:10065000EBE70120002EEDD1E9E70020EAE7C046F4
:10066000F0B5420046024D024C00C30F760A120E4E
:100670006D0A240EC80FFF2A1FD0FF2C10D0002AAD
:100680001FD171427141002C01D1002D1ED00029D3
:100690000ED183421ED00221581E08400138F0BD01
:1006A000002D26D1002AF4D1714271410029F0D0E9
:1006B0000028F4D101204042F1E7002E19D1FF2C8F
:1006C000EED0002CE5D1002DE3D1E4E70020002E90
:1006D000E5D0E0E7A24205DCEADBAE4202D8E7D390
:1006E0000020DCE7414241414842022108400138F4
:1006F000D5E702204042D2E7F0B5420046024D0263
:100700004C00C30F760A120E6D0A240EC80FFF2A82
:100710000DD0FF2C0FD0002A23D171427141002C43
:100720000FD1002D0DD10020002E14D00DE0002E91
:1007300010D1FF2C15D1002D0CD1002A03D171420C
:100740007141002908D1834210D00221581E08406F
:10075000013800E00220F0BD0028FCD10120404219
:10076000F9E7002CEFD1002DEDD1EEE7A24205DC38
:10077000F2DBAE4202D8EFD30020ECE74142414128
:100780004842022108400138E5E7C046F8B557461F
:100790004E464546DE464402E0B545000F1C640A5D
:1007A0002D0EC60F002D47D0FF2D4DD000238020E9
:1007B0009A469B46E400C00404437F3D7802430A06
:1007C00099467A00FB0F9846120E4B4644D0FF2AFA
:1007D00011D0D8008023DB040343994600207F3AE0
:1007E000AD18474653467740691C0F2B3FD8724AD5
:1007F0009B00D3589F46FF35002B00D079E052462E
:1008000002231A4392460220EBE747464C468346B2
:100810005B46022B28D0032B00D1C6E0012B4FD121
:1008200000200024C005FF0720433843F0BCBB462E
:10083000B246A946A046F8BD002C71D104239A46C1
:10084000033B00259B46B9E7002C63D108239A4659
:10085000063BFF259B46B1E7002B50D152460133A2
:100860001A4392460120BCE7FF200024DAE74846FD
:10087000260C2404220C0404240C4B4620001B0CE0
:10088000504374435A435E431219030C9B189C4215
:1008900003D9802252029446664400041A04000CD4
:1008A00012189401601E84411B0C920E9B19144374
:1008B0009B011C431B0172D50120630804401C43AB
:1008C00008007F3000283CDD630704D00F2323405D
:1008D000042B00D00434230103D580310800374BAA
:1008E0001C40FE28C0DCA401640AC0B29AE73700AD
:1008F0008EE7524603231A439246032071E7484687
:1009000002F0ECF84A46431F9A402D1A9146002007
:10091000763D66E70C239A46093BFF259B464DE74B
:10092000200002F0DBF87625431F9C4000236D4237
:100930009A469B462D1A41E780240027FF20E403B6
:1009400070E701231B1A1B2B00DD69E79E31200095
:100950008C40D840631E9C410443630704D00F239E
:100960002340042B00D0043463011AD50120002455
:1009700058E78020C003044209D04B46034206D109
:100980004C46044364024746FF20640A4AE780203D
:10099000C003044364023700FF20640A42E72900D1
:1009A0008EE7A4010020640A3CE78020C0030443D2
:1009B0006402FF20640A35E798AE0008FFFFFFF7E6
:1009C000F0B54646D6464F4643025B0ADA009446E7
:1009D0004A02C0B54400560A051CB046240E4E001B
:1009E00092091F0020009246ED0F360EC90FFF2E10
:1009F00000D17FE0012251408D4251D0A21B91468F
:100A0000002A00DC7EE0002E00D199E0FF2C00D10E
:100A10008CE080235246DB041A4392464A46012367
:100A20001B2A08DC53462021D340891A52468A40AB
:100A3000511E8A4113436246D31A5A0100D4F3E08F
:100A40009B019E09300002F049F805388640844237
:100A500000DDF7E03200041B20200134E240041BDB
:100A6000A64033005E1EB341002413435A0704D04E
:100A70000F221A40042A00D004335A0100D4D6E0D1
:100A8000621CFE2C00D1DAE09B015F0AD0B2C005E7
:100A90003843ED072843E0BCBA46B146A846F0BD4E
:100AA000A21B9146002A63DD002E00D199E0FF2CA5
:100AB0003CD080235246DB041A4392464A46012327
:100AC0001B2A08DC53462021D340891A52468A400B
:100AD000511E8A41134363445A0100D4A4E00134F7
:100AE000FF2C00D1ABE0012297491A405B080B4074
:100AF0001343BBE7002A32D08D4235D0FF22524249
:100B00009146A1444A46002A51D0301B002C00D007
:100B10009CE06346002B00D1DFE00138002800D1C3
:100B2000F7E0FF2E00D099E00D004346002B00D1E6
:100B300085E08027FF031F437F02FF207F0AA6E78F
:100B40005246002A74D0012252429046C1444A467D
:100B5000002A00D1C8E0FF2C00D05FE7E6E70122C1
:100B60005140A94200D049E7FF2252429146A14498
:100B70004A46002A43D0311B002C00D18CE0FF2EC6
:100B800000D192E080236246DB041A43944601239D
:100B90001B2909DC202063466246CB40411A8A406B
:100BA0001100481E81410B433400534494E7FE2258
:100BB000661C324264D1002C00D082E06346002BD8
:100BC00000D1ABE05346002B00D160E763465246AC
:100BD0009B1A5A0100D4AAE0634652460D00D31A6C
:100BE00044E75246002A23D0012252429046C14493
:100BF0004A46002A75D0FF2C00D05FE796E7FE2614
:100C00000134264253D1002872D16346002B00D113
:100C100093E05346002B00D139E7634400245A0186
:100C200002D54A4A013413405A0700D020E7DB08B6
:100C3000FF2C00D17AE75B025F0AE0B227E7FF20D2
:100C4000002724E7414B241A33400FE7FF2E00D141
:100C50006AE780236246DB041A43944601231B287B
:100C600009DC202463466246C340201A82401000FB
:100C7000441EA041034352460D003400D31ADCE663
:100C8000634652469E1A730117D4002E00D0D9E64F
:100C9000002500200027FAE66346002B44D00139E6
:100CA00000294CD0FF2E00D071E743463EE7FF2CD1
:100CB000C5D0524662445308B6E763460D00D61AC3
:100CC000C0E66246002A16D15346002B00D02BE71F
:100CD00080270025FF20FF03D9E60D00434634009E
:100CE000A6E753466344F7E6634652469B1AA4E6DA
:100CF0006246002AD9D05246002A00D116E7802247
:100D0000D203134200D111E74046104200D00DE754
:100D10000AE752460D003400D31A8EE65346002BE4
:100D200008D00D004746B2E64346340080E7002B6A
:100D300000D079E700250027A9E64746A7E65346F5
:100D400034006344C8E6C046FFFFFF7DFFFFFFFBA2
:100D500041024200C30F490A0020120E7E2A03D925
:100D60009D2A02D9094A981870478020000401433F
:100D7000952A07DC9620821AD1404842002BF3D1F5
:100D80000800F1E7963A9140F7E7C046FFFFFF7F82
:100D900070B5002813D0C317C5185D40C40F2800D4
:100DA00001F09CFE9E2301001B1A962B0FDC0828E5
:100DB00001DD08398D406D026D0AD8B202E00024D1
:100DC00000200025C0052843E407204370BD992B6F
:100DD0000BDD05222E00121AD64002001B32954070
:100DE0002800451EA84135000543052901DD4A1F9D
:100DF00095402A00084E3240680709D00F2028404D
:100E0000042805D00432500102D59F2332405B1ADA
:100E10009201550AD8B2D5E7FFFFFFFBF0B54F4668
:100E2000D64646460D0001001800C0B517002B033A
:100E30005A0A4B0F1343CA00914602036E00410049
:100E4000520AEC0F7D0F1543760D490DC00F8246F7
:100E5000AC46FF00721A844200D198E0002A00DC00
:100E600081E0002900D1B6E0C9498E4200D172E18B
:100E700080212800090408438446382A00DD5EE109
:100E80001F2A00DDEEE1202039006546801A8740E8
:100E9000D14085400D4339004F1EB9416746D740C8
:100EA0002943DB1B4A46551AA945894149425B1A29
:100EB000984643461B0200D4CCE043465B025B0AE3
:100EC00098464346002B00D12CE1404601F006FE37
:100ED00001000839202228004346521A8B40D04096
:100EE0008D4003438E4200DD17E18E1B721C1F2ACA
:100EF00000DDA7E1202118002E00891A8D408840CE
:100F0000D640D340691E8D413043984600260543A4
:100F10006B0709D00F232B40042B05D02B1DAB42B0
:100F2000AD416D42A8441D0043461B0200D494E02D
:100F3000974B721C9A4200D19DE04146954BED08BB
:100F400019400B00520549075B0229431B0B520D48
:100F500012051343E407234308001900E0BCBA4616
:100F6000B146A846F0BD002A43D08A1B002E00D00F
:100F70002AE14C461C4300D1D1E1541E012A00D184
:100F80001FE2834DAA4200D172E2220023E1002A2F
:100F900000DC98E0002942D07D498E4200D1DAE0A1
:100FA00080212800090408438446382A00DD29E10D
:100FB0001F2A00DC87E1110065462039CD40202A38
:100FC00004D040206146821A91400F4339004F1EE1
:100FD000B9410D431BE12900394300D1B5E0511E51
:100FE000012A00D1ABE16A48824200D1B2E10A0095
:100FF00043E76949751C0D4200D0CFE0002E00D0B8
:1010000093E14946194300D1D1E16146394300D00B
:10101000E3E149465807C9080143DB0826E02900F7
:10102000394300D191E0511E012A05D0584882422F
:1010300000D18FE10A00B8E73D004D444D4589419C
:101040006344984649428844434602261B0200D521
:10105000EBE0013E6B0700D05CE74346E9085A0726
:1010600011433200DB084A48824221D01B0352055B
:101070001B0B520D6CE70023002169E72A003A435D
:1010800069D04A465807D108DA0880231B03084371
:101090001A4207D02900ED081D4203D12A00FF089B
:1010A00048073843430FC1005B07C90819431300C1
:1010B0000A001A4300D113E28022120313431B03D8
:1010C000334A1B0B44E7002A4BD08A1B002E00D169
:1010D000E7E02F48814200D195E1802000040343DE
:1010E000382A00DD43E11F2A00DDDBE120201D005E
:1010F0004E46801A8540D64035434E4686403000E5
:10110000D340461EB0419C440543ED19BD429B416E
:101110005B42634498460E007FE01E4A761A1340F5
:101120009846F5E6280001F0D9FC010018311F2986
:1011300000DCCFE62B00083883400025D2E662466B
:101140003A4311004F1EB941ACE649465807C90859
:101150000143DB0887E749465A07C9081143DB0802
:10116000A6E70D49701C084200D0BBE0002E00D05D
:1011700014E14946194300D175E12900394300D0F3
:101180007EE149465807C9080143DB086EE7C046BF
:10119000FF070000FFFF7FFFFE0700004946CD1B51
:1011A0006146581AA945894149428846010040468E
:1011B000091A8846090200D5A6E04146294300D015
:1011C0007FE60023002451E7C74CA14200D1C7E0CD
:1011D000802424042343382A54DC1F2A00DDCCE079
:1011E00020244846A41A1D004E46A040D640A540E3
:1011F0000400D34062463543661EB441D31A9C4670
:10120000254344E062463A4315006F1EBD414D44FC
:101210004D45894149428846984443461B0200D4C3
:1012200018E7B14B01369E4249D04246AF4B0121EF
:101230001A4013006A080D401543D9075B08984609
:101240000D4365E618001F3EF040202A03D04021E0
:101250008A1A93401D43691E8D410023002698463B
:101260000543F7E6110065462039CD40202A04D019
:1012700040206146821A91400F4339004F1EB94108
:1012800029430FE64A4613431D006B1E9D417D1BFB
:10129000AF429B4162465B42D31A984654460E00C9
:1012A00007E64846184300D1B3E0501E012A00D19A
:1012B0000DE18D4DAA4200D1A5E0020010E73200F9
:1012C0000023002144E620213800891A65468F401A
:1012D0008D40D040791E8F4105433D436746D7403E
:1012E000DB1994E7804A904200D1ECE03900494490
:1012F00049459241634452429B18DD0749085B0807
:10130000984606000D43A5E64A46BD1AAF428941FC
:1013100062464942D31A5B1A98465446D1E56C0797
:10132000F9082143EB0804009DE64A461A4375D1AB
:101330006146394314D1802300241B03BCE64A468E
:10134000D51BA9458941624649429B1A5B1A9846BA
:101350000126AEE54A46D1085A071143DB08A7E645
:101360006346F9085A0754461143DB08A0E64A468B
:1013700013431D006B1E9D41C7E614001E00203C58
:10138000E640202A05D04024A21A93404A461A4338
:1013900091464D466B1E9D41354378E74A461A43B8
:1013A00000D06BE66B07F9081943EB0880E661464D
:1013B000394354D06346F9085C072143DB08040035
:1013C00054E64A46BD1AAF42894162464942D31AA1
:1013D0005B1A9846040001266BE54A46D51BA945D1
:1013E0008941624649429A1A521A9046120232D5EF
:1013F0004A46BD1AAF42894162464942D31A5B1A36
:101400009846040084E56346F9085A071143DB084F
:101410004EE6F90868070143EB0824E662463A43C2
:1014200000D198E64A46D1085A071143DA088023CA
:101430001B031A4208D06046C5081D4204D1544619
:101440002A00F908430719434B0FC9005B07C90875
:10145000194313002CE64146294300D0FAE5002346
:101460000A00002402E66B07F9081943EB08FDE5C2
:101470006346F9085B07194363460400DB0817E677
:101480003D004D4463444D45894198464942884456
:1014900043461B0200D4DDE54246144B01261A40A8
:1014A0009046D7E510001E002038C640202A05D0FF
:1014B0004020821A93404A461A4391464D466B1E7D
:1014C0009D41354321E602000023002140E54A46C4
:1014D000D519BD4289416344984649428844B3E5E1
:1014E0000021014A0B0033E5FF070000FFFF7FFFEB
:1014F000F0B557464E464546DE46E0B58146050006
:101500000C03480092461F0085B0240B400DCE0FFF
:10151000002859D0874B984200D198E06B0FE40027
:101520001C4380231B0423439846834BED009B46BA
:1015300000239946834400933C037B005046240BD0
:101540005B0DFF0F002B67D07A4A934218D07A497F
:10155000420F8C46E400594614438022634412042F
:10156000CB1A14439B46C200002033007B409A46AE
:101570004B460F2B00D9EFE070499B00CB589F469C
:101580006F4B52469C462243E344002A00D095E02C
:10159000494602231943894600240220E5E7002337
:1015A0000024002552461B052343D207134328007D
:1015B000190005B0F0BCBB46B246A946A046F0BD36
:1015C000002400255B4BEDE74B462343984600D1B2
:1015D00089E0002C00D1E0E1200001F07FFA010059
:1015E00002000B391D235B1A49461000D940083808
:1015F00084400B004D4623439846854051483C03A8
:10160000831A9B460023994600937B005046240B87
:101610005B0DFF0F002B97D15246224355D0002C73
:1016200000D1CAE1200001F059FA02000B3A1D2353
:1016300001009B1A52460839DA408C401443524646
:101640008A40414B58449B46834400208DE74B46DB
:101650002343984640D108239946063B00258346FC
:10166000009369E7B246009B022BA9D0032B00D15F
:1016700011E2012B93D0354A5A44002A00DC3CE1A8
:101680006B0700D0A7E1ED084346DB0106D54246D3
:101690002F4B1A4090468022D2005A442D4B9A423A
:1016A0008EDC4346520558075C020543240B530D5C
:1016B00078E7BA46A04615000090D4E74A460323CF
:1016C0001A439146032052464FE7494601231943E6
:1016D00089460024012048E70C239946093BA0468F
:1016E0008346009328E70423994600239B46013351
:1016F0000025009320E7002380249A4600250D4B07
:1017000024034FE7802341461B03194208D01C42A3
:1017100006D11C432403BA461500064B240B41E7AF
:101720008024434624031C432403B246014B240B6C
:1017300038E7C046FF07000001FCFFFFD8AE0008F5
:1017400001F8FFFF0DFCFFFFF3030000FF030000A3
:10175000FFFFFFFEFE070000444500D216E100D166
:1017600011E101235B429C462E0040460025E344E4
:101770002302140E1C431B0C994623041F0C120257
:1017800049460092019701F0A3F902007A430B0445
:10179000310C804619438A420BD901235B429C4697
:1017A0000919E0448C4204D88A4202D9831E984623
:1017B0000919881A494601F08BF909048C4631044D
:1017C0006646019A090C4243030031438A4204D918
:1017D0000919013B8C4200D811E1891A4246009E4A
:1017E00012041A43330C1F00100C9046029313048A
:1017F0003204160C32001B0C5A4303967B434643BB
:101800007843170CBC469B1963449E4203D980263B
:101810007602B44660441E0C301816041B04360CC5
:101820009E19814200D29CE000D197E0AE1B091ABC
:10183000B54280414042081A844200D111E1494634
:1018400001F046F9019A0B044243310C050019439B
:101850008A4207D90919013D8C4203D88A4201D92D
:10186000851E0919881A494601F032F909048C4687
:1018700031046646019A090C4243030031438A420F
:1018800007D90919013B8C4203D88A4201D9831E2A
:101890000919039E891A32002D041D43029F2B044F
:1018A0001B0C5A437B439C46280C4643130CB44400
:1018B000634478439E4203D980267602B44660444E
:1018C0001E0C12041B04120C30189B18814206D304
:1018D00002D001231D43CEE6002B00D1CBE66118D8
:1018E0006E1EA14200D2A4E0814200D2C9E000D124
:1018F000D9E03500EDE701256D420121891A38292B
:1019000000DD4CE61F2900DC7FE01F235B429A1AB2
:101910004346D340202904D04446654A5A44944063
:1019200025436A1E954107222B43150000241D40C4
:101930001A4200D1A1E00F2200241A40042A00D14B
:1019400098E01A1D9A429B415B42E4181300220260
:1019500000D48FE001230024002523E6B54200D304
:1019600064E743465A1E009B9C4665441F009D4207
:101970009B415B421B19C9188C423AD2884263D8FA
:1019800060D0904652E7AA4200D9EAE64346DE0715
:1019900058086B081E43ED07EAE6484601F09EF83A
:1019A00001000200153120321C2900DC1AE64B46EA
:1019B000083883400025984620E601F08FF80300A0
:1019C0001A00153220301C2A00DC30E65446083B51
:1019D00000229C4035E60F232B40042B00D152E619
:1019E00005235B42AB429B4104355B42ED089844C2
:1019F0004AE68C42C5D1AF42C0D9904616E78A422A
:101A000000D8EAE6831E0919E7E62A4A28005A4464
:101A1000434695409340C8406A1E9541444603435F
:101A20002B43CC405A0792D00F221A40042A88D167
:101A30008DE73500814200D04BE7009A934200D0F9
:101A400047E718E6AE429CD902235B429C46009BC6
:101A5000E0449C4665449D429B415B421B19C9186A
:101A6000E4E6154A5A44002A00DC44E70123002535
:101A7000984409E665076402240BDB081D43002334
:101A800090E5009E023D7200B242BF417F423C1988
:101A900009190092CEE78024434624031C43240303
:101AA000064B240B7EE5009A9A42EAD33500C4E740
:101AB0003E0400001E040000FF030000FF070000BA
:101AC000F0B54F464646D646944691461A03120B49
:101AD000184DC0B54C000F0392465A0006008046D0
:101AE0003F0B0120640DC90F520DDB0FAC420AD031
:101AF000AA4203D0944201D157450DD0E0BCBA466A
:101B0000B146A846F0BD3D003543F7D1A242F5D11C
:101B1000524665462A43F1D10120C845EED199428B
:101B200006D0002CEAD13E433000461EB041E5E726
:101B30000020E3E7FF070000F0B54E464546574654
:101B4000DE4604001800E0B516001B031B0B324DE7
:101B50000F034A0099464300A446B0463F0B520D7E
:101B6000C90F5B0DC00FAA4229D0AB4218D0002A82
:101B70002AD13C43A34665426541002B02D14C4625
:101B8000264327D0002D15D1814228D002200139CB
:101B900008400138F0BCBB46B246A946A046F0BD9D
:101BA0004D462E432FD1002AEED13C43654265417C
:101BB000002DE9D00028EDD101204042EAE73D00A8
:101BC000254320D19342EBD0002BDDD14C46264358
:101BD000DAD1DBE75B460020002BDBD0D6E79A4268
:101BE0000ADCE7DB4F45D1D810D000204F45D1D2D9
:101BF0000029E1D00800CDE743425841022340428A
:101C000018400138C6E702204042C3E7C445BDD8AA
:101C10000020C445BED2EBE7FF070000F0B54E46FA
:101C200045465746DE4604001800E0B516001B0383
:101C30001B0B314D0F034A0099464300A446B046A2
:101C40003F0B520DC90F5B0DC00FAA4211D0AB4222
:101C500014D0002A2FD13C43A34665426541002B96
:101C600014D14C46264311D15B460020002B17D0DF
:101C700010E03D00254312D193421CD14D462E4326
:101C80000DD1002A04D13C4365426541002D0DD1A0
:101C9000814216D0022001390840013800E00220BC
:101CA000F0BCBB46B246A946A046F0BD0028F7D11D
:101CB00001204042F4E7002BEAD14C462643E7D10D
:101CC000E8E79A4206DD4342584102234042184069
:101CD0000138E5E79A42E9DB4F45DBD806D0002022
:101CE0004F45DDD20029E3D00800D9E7C445D1D85B
:101CF0000020C445D4D2F5E7FF070000F0B55746F1
:101D00004E464546DE46E0B598460C034B000600BD
:101D1000924687B0240B5B0DCF0F002B6CD0DD4AB1
:101D2000934200D186E0420FE40014438022120463
:101D30001443D94AC500944663440093002399464E
:101D40009B46434642461E03D20F5B0050469046D8
:101D5000360B5B0D00D178E0CE4A93421DD0CE49C0
:101D6000420F8C4600996344F6008C46164380224D
:101D70009C44120463461643C2000020009300995D
:101D8000434601318C4649467B4001930F2900D9D7
:101D90007EE0C24B890059588F465246009B324321
:101DA00000D056E1BB4900268C4663444946009367
:101DB0000223194389460220E1E743460193340098
:101DC000150083465B46022B5ED0032B00D1F3E166
:101DD000012B00D018E1002200240025019B1205F0
:101DE0002243DB071A432800110007B0F0BCBB46B2
:101DF000B246A946A046F0BD2500054300D141E109
:101E0000002C00D1ADE1200000F068FE01000200CE
:101E10000B391D2310005B1A31003500083884404F
:101E2000D94085400C439E48831A0093002399466D
:101E30009B4686E70500254300D01CE1082200935D
:101E40000223002491469B467BE75246324300D151
:101E50000AE1002E00D176E1300000F03FFE0200E2
:101E60000B3A1D2301009B1A52460839DA408E4076
:101E7000164352468A40009B8949181A03008C4633
:101E80006344002000937AE700240025814AA5E7F7
:101E90002F0C2D042D0C2B00110C1204120C53438B
:101EA0009846130028007B4399464843484483469C
:101EB00040460B00000C824658467B435044029338
:101EC000814506D99A4680235B029946CA44534607
:101ED0000293030C9B4643461B0400041B0C9846CC
:101EE000030043440493330C99462B003604360C0C
:101EF0007343984633007B439A464B465D435F43AA
:101F000043465544180C4019824503D980235B028F
:101F10009A465744050CEB19059343461D042D0CB6
:101F200000044019250C2404240C270057436A435D
:101F300090462A003B0C9A464A436143414451442F
:101F40008344884503D980235B02984642443F047A
:101F50000B0C3F0C0904C919270098464B467743E0
:101F60005C436E435D433B0C9946A4194C44424488
:101F70000395A64204D980235B0298464544039505
:101F8000029B3F045B441E00834280412304984629
:101F9000059B3F0C4744984676188E42894147443A
:101FA00040423D18A846934649428A46C3449F4250
:101FB000BF4180458041039BDA44984653464042E6
:101FC0007F420743240C934592418A4589413F193A
:101FD000DC0D049B75021D43681E85415346524229
:101FE00049420A43BF184744F60D7F0235435A025F
:101FF0003C431543FB0100D4C1E001216A080D40B8
:102000001543E2071543640826496144002956DD5B
:102010006B0709D00F222A40042A05D02A1DAA42A4
:10202000AD416D4264191500E30104D580211E4ABB
:10203000C900144061441D4A914200DD24E7620753
:10204000ED08640249051543240B4A0DC6E60197C5
:10205000B8E6104A0320944663444A46009303239B
:102060001A43914652468AE6494601231943894656
:102070000026012083E60C220093032305009146ED
:102080009B465EE604239946002300930133002417
:102090009B4656E6FF07000001FCFFFF18AF000853
:1020A0000DFCFFFFFF030000FFFFFFFEFE07000027
:1020B000002380240025444A019324038EE6012056
:1020C000401A382800DD86E61F285BDD1F2223002A
:1020D0005242511ACB401900202803D03B4A624497
:1020E000944025436A1E95412A000A4307210D00AA
:1020F0000024154011425BD00F2100241140042917
:1021000053D0111D914292415242A4180A00230259
:102110004BD501220024002560E680231B031C42CE
:1021200009D01E4207D133431C0343461500240B3C
:10213000254A019352E68022120314432403224AC3
:10214000240B01974AE600F0C9FC03001A0015327F
:1021500020301C2A00DC84E65646083B00229E40C4
:1021600089E600F0BBFC01000200153120321C2979
:1021700000DC4EE6340008380025844053E6009B1E
:102180009C4641E71249220061442E008D408A405E
:10219000C640691E8D4132432A43C4405307B6D01E
:1021A0000F2111400429ACD1B1E765076402240B6B
:1021B000D2081543002211E680221203144324039F
:1021C000014A240B0AE6C046FF0700003E04000057
:1021D0001E040000F8B557464E464546DE4604004C
:1021E000E0B51F0010000B03620F4E00CD0F5B0A1D
:1021F00039031343490AE200440F2143C24C91467C
:102200009246C0007A008046760D520DFF0FA24222
:1022100000D1B4E001246740BB46BD4200D188E054
:10222000B41AA446002C00DCB2E0002A00D1C5E0BC
:10223000B54A964200D18BE28022120411436246D5
:10224000382A00DDA1E11F2A00DD16E220270C005C
:10225000BF1ABC400200A0466446B840E240444673
:1022600014430200501E82416046C14022435B1A63
:1022700049468C1AA145924152429B1A98464346C0
:102280001B0200D417E143465B025B0A98464346B3
:10229000002B00D16CE1404600F020FC0200083A1F
:1022A000202120004346891A9340C84094400343AC
:1022B000964200DD57E1961B711C1F2900DDCBE122
:1022C000202218002600521A94409040CE40CB4065
:1022D000621E94413043984600260443630709D0A8
:1022E0000F232340042B05D0231DA342A4416442A5
:1022F000A0441C0043461B0200D4DFE0824B0136A1
:102300009E4200D1FBE04246804BE4081A40130095
:10231000710552075B0222431B0B490D0905ED07AE
:10232000194329431000F0BCBB46B246A946A0465B
:10233000F8BDB41AA446002C58DD002A00D19EE056
:10234000714A964200D13BE1802212041143624659
:10235000382A00DDC1E01F2A00DCBBE10C00203A76
:10236000D44022006446202C04D040273F1BB940B3
:10237000084380464446611E8C411443B1E00C0082
:1023800004432AD0BB46BD422DD0614CA446B44480
:102390006446002C5CD0941BA446002E00D015E1AE
:1023A0004D461D4300D1C3E1651E012C00D10CE256
:1023B000554EB44200D1F8E1AC460EE10A000243AA
:1023C00000D136E12200013A012C00D1C6E14E4C89
:1023D000A44500D1F4E0944631E701246740BB46B0
:1023E000BD4200D01CE74A4CA446B4446446002CCD
:1023F00000D1CFE0941BA446002E00D15CE1424EF8
:10240000B24200D1ECE18026360433436446382CD6
:1024100000DDB3E11F2C00DD38E22026361B1C0056
:10242000B4404F46A0466446E74044463C434F46CE
:10243000B7403E00771EBE4134436646F340C9189C
:10244000241884429B415B429846160088444EE023
:10245000304A741C144200D0D6E04A461A43002E7B
:1024600000D05BE1002A00D1A5E10A00024300D0C0
:10247000BBE14A465907D2080A43DB0827E00A00B5
:10248000024300D174E12200013A012C05D01E4C18
:10249000A44500D194E0944659E748444845924108
:1024A0005B189846040052429044434602261B02A1
:1024B00000D5C4E0013E630700D011E74346B446AF
:1024C0005907E2080A43DB080F498C4540D06146B2
:1024D0001B0349051B0B490D20E701430C00611E3E
:1024E0008C414C444C45924152429046984443465C
:1024F0001B02E0D5044B01369E4200D09FE0310024
:10250000002300220AE7C046FF070000FFFF7FFF0D
:1025100001F8FFFFFE070000002A00D160E10A0079
:1025200002434DD04A465C07D20822438024DB0890
:102530002403234207D0CE08264204D15D4633004F
:10254000C20849070A43510FD200D20849070A437B
:102550001100194300D1C8E1802109030B431B037B
:10256000D5491B0BDAE6D549B61A0B409846B5E6B5
:10257000200000F0B3FA020018321F2A00DC8FE6B8
:10258000230008388340002492E608430200501ECE
:1025900082416DE6CA4C721C224200D0ADE04A4630
:1025A0001A43002EB8D1002A00D158E10A00024394
:1025B00000D059E14A465907D2080A43DB0886E7AA
:1025C0004A465907D2080A43DB08C1E7BA4DAA4276
:1025D00000D11EE180252D042B436446382C5DDCA0
:1025E0001F2C00DDD0E0202567462D1B4E461C0029
:1025F000FE40AC4034434E46AE403500FB406E1EBC
:10260000B541C91A2C434EE04A46141AA1459241DD
:10261000524290465F1A3A004746D21B9046120239
:1026200000D58BE04246224300D030E6002300254F
:102630004DE74A465907D2080A43DB0844E74246B9
:102640009E4B61081A401300012214400C43DA0724
:102650005B089846144341E61A001F3EF2401600FC
:10266000202903D04022511A8B401C43621E944102
:1026700000233443984600261DE70C00203AD4403E
:1026800022006446202C04D040273F1BB940084359
:1026900080464446611E8C412243E9E54C46234373
:1026A0001C00631E9C41041BA0429B415B42CB1A51
:1026B00098465D461600E2E54E461E4300D1AEE068
:1026C000661E012C00D1FDE07B4FBC4200D107E12A
:1026D000B4469BE664462022121B0C00944007007F
:1026E0009040A0466446421E90416246E740444600
:1026F000D1403C4304435B18F3E66F4CA24200D147
:10270000D5E048445B184845894149425B18DC07DD
:1027100040085B08984616000443CCE6002A00D027
:1027200082E00A00024340D1802300251B0313E707
:102730004B07C2081A435D46CB08C5E64A46841AD1
:10274000A0429241CB1A52429B1A98465D469EE5A2
:102750004A465907D2080A43DB08F9E64A46141AE2
:10276000A14592415B1A52429B1A9846012686E582
:102770004A465907D2080A43DB08A5E64C462343DC
:102780001C00631E9C415BE665461E00203DEE403A
:10279000202C05D040252D1BAB404C461C43A246A7
:1027A0005446631E9C4134437DE74B07C2081A43DD
:1027B0005D46CB08CCE60A00024300D136E74B0762
:1027C000C2081A435D46CB0881E64A46841AA042F5
:1027D0009241CB1A52429B1A98465D4601264EE51D
:1027E0004B07C2081A43CB08B2E64A46141AA14561
:1027F00092415F1A5242BA1A904612026BD54A466B
:10280000841AA0429241CB1A52429B1A98465D46C6
:1028100064E54B07C2081A435D46CB0898E64B07B0
:10282000C2081A43CB084FE60A00024390D04A463A
:102830005C07D20814438022DB081203134208D03D
:10284000CE08164205D1C0084907084304005D467A
:102850003300610FE2004907D2080A4378E64B07CC
:10286000C2081A43CB0832E648445B1848459241F7
:10287000984652429044434604001B0200D41AE694
:1028800042460E4B01261A40904614E666461F004B
:10289000203EF740202C05D04026361BB3404C4646
:1028A0001C43A2465446631E9C413C43C8E51100AC
:1028B0000023002232E5C046FF070000FFFF7FFF34
:1028C000FE0700004A461418844292415B1898465D
:1028D00052429044E9E54246224300D1A6E6EAE5A9
:1028E0004B07C2081A43CB0832E600220149130005
:1028F00014E5C046FF0700000A0030B5134C530032
:1029000009030500090B00205B0DD20FA34204DD73
:102910000F48834202DD0F4BD01830BD80204003AA
:1029200001430D48C01A1F2808DD0C48C31AD940BE
:102930000B005842002AF0D11800EEE7084CC540C1
:10294000A446634499400B002B43F2E7FE030000CA
:102950001D040000FFFFFF7F33040000130400008C
:10296000EDFBFFFF70B5002816D0C317C5185D40FA
:10297000C40F280000F0B2F8114A121A0A2816DC17
:1029800003002E0015339E400B23181AC540530533
:102990002D032D0B5B0D03E00024002300250026F2
:1029A0001B052B43E40723433000190070BD0B388F
:1029B000854053052D0300262D0B5B0DF0E7C04627
:1029C0001E040000002243088B4274D303098B428B
:1029D0005FD3030A8B4244D3030B8B4228D3030CEF
:1029E0008B420DD3FF22090212BA030C8B4202D391
:1029F0001212090265D0030B8B4219D300E0090AB9
:102A0000C30B8B4201D3CB03C01A5241830B8B42C1
:102A100001D38B03C01A5241430B8B4201D34B03AA
:102A2000C01A5241030B8B4201D30B03C01A52410F
:102A3000C30A8B4201D3CB02C01A5241830A8B4294
:102A400001D38B02C01A5241430A8B4201D34B027D
:102A5000C01A5241030A8B4201D30B02C01A5241E1
:102A6000CDD2C3098B4201D3CB01C01A5241830995
:102A70008B4201D38B01C01A524143098B4201D3CF
:102A80004B01C01A524103098B4201D30B01C01AFA
:102A90005241C3088B4201D3CB00C01A5241830874
:102AA0008B4201D38B00C01A524143088B4201D3A1
:102AB0004B00C01A5241411A00D201465241104601
:102AC0007047FFE701B5002000F006F802BDC046E0
:102AD0000029F7D076E770477047C0461C210123D4
:102AE0001B04984201D3000C10391B0A984201D3F1
:102AF000000A08391B09984201D30009043902A2CF
:102B0000105C40187047C046040302020101010135
:102B100000000000000000009E2110B5C905041C43
:102B2000FDF7D0FB002803D1201CFEF711F910BDE2
:102B30009E21201CC905FDF743FFFEF709F98023FC
:102B40001B069C466044F2E7F0B54F464646D64623
:102B50004502C0B547000C1C6D0A3F0EC60F002F82
:102B600066D0FF2F6CD00023EA00802599469A4654
:102B7000ED0415437F3F60026100430A9846090E49
:102B8000E40F002948D0FF2910D08022D800D204B9
:102B90000243904600207F394A4633007F1A0243A1
:102BA0006C4992008A586340DBB29746002B6DD186
:102BB0000220FF3F33E00023984626004546824628
:102BC0005346022B00D17FE0032B00D194E0012B70
:102BD00017D038007F3000285FDD6B0704D00F234B
:102BE0002B40042B00D004352B0103D538005A4B61
:102BF00080301D40FE2867DCAD016D0AC0B202E0E6
:102C00001E0000200025C0052843F6073043E0BC25
:102C1000BA46B146A846F0BD002B2BD101204A464A
:102C200033004E49024392008A586340DBB2974614
:102C3000002D13D104239946033B00279A469AE7B7
:102C4000002D05D108239946063BFF279A4692E7B7
:102C50000C239946093BFF279A468CE72800FFF78B
:102C60003DFF7627431F9D4000237F4299469A46A9
:102C70003F1A80E71800FFF731FF4246431F7621D5
:102C80009A404942091A9046002085E7FF21032017
:102C900082E71E00FF200025B5E701231B1A1B2B2E
:102CA000AFDC9E372900BD40D9406A1E95410D43D7
:102CB0006B0704D00F232B40042B00D004356B018D
:102CC00044D5012000259EE7FF2000259BE78025B5
:102CD0000026FF20ED0396E7002398468020C003DE
:102CE000054209D04346034206D1454605436D02DD
:102CF0002600FF206D0A86E78020C00305436D0291
:102D0000FF206D0A7FE741466A014801824219D2DD
:102D10001B210025013F012614006D005200002CEC
:102D200001DB904201D8121A354301390029F3D151
:102D3000501E824138007F301E001543002800DD00
:102D40004BE7AAE71A210125121AE4E7AD0100209A
:102D50006D0A58E758AF0008FFFFFFF798AF00086B
:102D600070B5051E0ED0FFF7B9FE9E2304001B1A96
:102D7000962B0CDC082801DD083CA5406D026D0A8D
:102D8000D8B201E000200025C005284370BD992B72
:102D900009DD020029001B3291404A1E91410522A3
:102DA000121AD5400D43052C01DD621F9540290004
:102DB000084E31406A0709D00F202840042805D06A
:102DC00004314A0102D59F2331401B1B89014D0A62
:102DD000D8B2D9E7FFFFFFFB70B543004602C40F2E
:102DE000FE201B0E591C750A08420CD0E0229200EE
:102DF00094466D07360B63441B053343E4072343B6
:102E00002800190070BD002B14D1002D1BD0280004
:102E1000FFF764FE0A281CDC0B232A001B1ADA4089
:102E2000030015339D400E4B12031B1A5B05160B56
:102E30005B0DE1E7002D09D0320B80263603094BEC
:102E40006D071643D8E700230026D5E70026054B7B
:102E5000D2E703002A000B3B9A400025E3E7C04677
:102E600089030000FF07000002004B00F0B50803D3
:102E70005B0D3D4ECC0F400A510F5F1C0843D5003F
:102E800037420AD039495E18FE2E16DDFF23002195
:102E9000DB050B43E0071843F0BD002B06D12843A8
:102EA00027D005218901490ADBB2F1E70543EDD0BE
:102EB0008021C903FF230143EAE7002E1CDD9201B4
:102EC00011004A1E9141C0006D0F014329434B0779
:102ED00048D00F230B40042B00D004318023DB04A7
:102EE0000B403FD0721CFE2ED0D08901490AD3B2CC
:102EF000CEE700230021CBE73200173222DB80210E
:102F00001E2209040843921B1F2A1DDD022149428B
:102F10008E1B0100F1400E00202A04D0144A944672
:102F200063449840054329004D1EA94131430026C2
:102F30004B07CED180200B00C00401220340014288
:102F4000D3D1AFE70023ACE70A498C46290063449C
:102F5000D1409D400A00290098404D1EA9410143DF
:102F60001143E4E733009DE7FE07000080FCFFFF0C
:102F7000A2FCFFFF82FCFFFF024670B50A439207E6
:102F80002AD11E4DEE0104C808C9541B9443344095
:102F900017D0D0B2D9B2401A2106014310D190B255
:102FA00099B2401A210401430AD110021902000A01
:102FB000090A401A2102014302D1100E190E401ACB
:102FC00070BD9A42DFD010BA19BA884201D90120E7
:102FD00070BD0020C04370BD02780B780130013114
:102FE000002A09D09A4207D102780B7801300131CA
:102FF000002A01D09A42EFD0D01A70BD0101010120
:103000007047C04600000000000000000000000003
:103010007047C046000000000000000000000000F3
:10302000FEE7C046000000000000000000000000B5
:1030300084B0164B0393039B1B680293039B5B684E
:10304000019309E0029B1A68019B1A60019B0433FB
:103050000193029B04330293039B9B68019A9A425B
:10306000F0D305E0019B00221A60019B0433019319
:10307000039BDB68019A9A42F4D3039B10330393BA
:10308000039A034B9A42D6D304B07047D8AF0008D6
:1030900058B0000800000000000000000000000020
:1030A0007047C04600000000000000000000000063
:1030B00010B5FFF7F5FF00F0BBFF01F069F800F075
:1030C00057FC00F055FE01F02BFE00F049F810BD52
:1030D000024B5B6A9BB218007047C046002000405C
:1030E00082B002006B4606331A80064B6A460632EF
:1030F00012885A63034B00221A61024B0222DA60E3
:1031000002B07047002000400000000000000000F6
:10311000014B0022DA6070470020004000000000F0
:1031200082B002006B4606331A80034B6A460632B1
:1031300012885A6302B0704700200040000000006F
:10314000044BDB68022213405A1E9341DBB2180085
:103150007047C04600200040000000000000000052
:1031600010B501F075F810BD00000000000000006F
:1031700010B5FFF7ADFF0300180010BD0000000000
:1031800000B583B002006B4606331A8000F038F8B1
:10319000031E03D0054B180001F03AFE6B460633C0
:1031A0001B881800FFF79CFF03B000BD58B0000853
:1031B00010B5FFF7ADFF10BD0000000000000000DB
:1031C00000B583B002006B4606331A8000F018F891
:1031D00003001A0001235340DBB2002B03D0064B3F
:1031E000180001F015FE6B4606331B881800FFF728
:1031F00097FF03B000BDC04668B0000800000000A3
:1032000010B5FFF79DFF0300180010BD000000007F
:1032100072B67047000000000000000000000000CF
:1032200062B67047000000000000000000000000CF
:1032300010B5FFF7EDFF01F05BFE10BD00000000D0
:1032400010B501F07DFE0E4B1A680D4BD31A5A1EB5
:103250009341DBB2002B0FD0094BDB689A68084B17
:103260001B689B689A429B415B42DBB2002B03D0F8
:10327000044B180001F0CCFDFFF7D2FF10BDC04693
:10328000280A002088B000080000000000000000AC
:1032900010B5FFF7CDFF10BD0000000000000000DA
:1032A00010B5FFF7CDFF10BD0000000000000000CA
:1032B00000B583B00190019B180003F0D1FA03B070
:1032C00000BDC0460000000000000000000000003B
:1032D00000B583B001900091009A019B1100180085
:1032E00003F0D6FA0300180003B000BD0000000090
:1032F00000B583B001900091009A019B1100180065
:1033000003F0E6FA03B000BD00000000000000007A
:1033100000B587B0039002910192019B5A4253413C
:10332000DBB2002B03D02D4B180001F071FD039B85
:103330009B68019A9A4202D9039B9B680193039B65
:103340001A69039B9B69D31A0593019A059B9A42BC
:103350000DD2039B9969019A029B180007F060FC4B
:10336000039B9A69019BD218039B9A612BE0019AF7
:10337000059B9A421CD9039B9969059A029B1800E8
:1033800007F04EFC029A059BD3180293019A059B05
:10339000D31A0493039BD968049A029B180007F080
:1033A0003FFC039BDA68049BD218039B9A610AE0F6
:1033B000039B9969019A029B180007F031FC039B5B
:1033C000DA68039B9A61039B9A68019BD21A039B5C
:1033D0009A60019B180007B000BDC04674B0000899
:1033E00000B587B0039002910192019B5A4253416C
:1033F000DBB2002B03D02D4B180001F009FD039B1D
:103400009B68019A9A4202D9039B9B680193039B94
:103410001A69039B5B69D31A0593019A059B9A422B
:103420000DD2039B5B69019A0299180007F0F8FB23
:10343000039B5A69019BD218039B5A612BE0019AA6
:10344000059B9A421CD9039B5B69059A0299180057
:1034500007F0E6FB029A059BD3180293019A059B9D
:10346000D31A0493039BDB68049A0299180007F0AF
:10347000D7FB039BDA68049BD218039B5A610AE0CE
:10348000039B5B69019A0299180007F0C9FB039B33
:10349000DA68039B5A61039B9A68019BD21A039BCB
:1034A0009A60019B180007B000BDC0467CB00008C0
:1034B00000B585B00390029101920093039B180020
:1034C000FFF7F6FE039B00229A60039B029ADA60E4
:1034D000039B029A9A61039B029A5A61029A019B8A
:1034E000D218039B1A61039B009ADA61039B069A28
:1034F0001A6205B000BDC0460000000000000000D8
:1035000000B583B001900A006B4603331A7001F0D6
:10351000E7FD019B5A69019B9B699A4205D1019B7A
:103520009B68002B01D0012300E000231A1C01231B
:103530001340DBB201225340DBB2002B1ED0019BB3
:103540009B685A1C019B9A60019B5B69591C019AFC
:1035500051616A46033212781A70019B5A69019BC5
:103560001B699A4203D3019BDA68019B5A61019B54
:1035700000211800FFF7BCFE002301E001235B429D
:10358000180003B000BDC0460000000000000000AD
:1035900000B585B001900091FFF77AFE0EE0019B27
:1035A000009A11001800FFF793FE03000293029B9C
:1035B000002B03DAFFF774FE029B29E0019B9B6856
:1035C000002BECD0019B9B685A1E019B9A60019BCB
:1035D0009B69591C019A91610F226A441B781370F0
:1035E000019B9A69019B1B699A4203D3019BDA688C
:1035F000019B9A61019BDB69002B04D0019BDB6975
:10360000019A10009847FFF74BFE0F236B441B787D
:10361000180005B000BDC04600000000000000001A
:1036200000B589B00390029101920093039BDB697E
:103630000793019B0693019B5A425341DBB2002B37
:1036400003D01E4B180001F0E3FBFFF721FE29E039
:10365000019A0299039B1800FFF75AFE0300059395
:10366000059B002B0BD1039B009A11001800FFF75C
:103670002FFE03000493049B002B16D112E0079B3E
:10368000002B03D0039A079B10009847FFF708FE12
:10369000019A059BD31A0193029A059BD3180293B2
:1036A000FFF7F6FD019B002BD2D1FFF7F9FD069A3B
:1036B000019BD31A180009B000BDC04694B00008A1
:1036C00000B585B00390029101920093039B18000E
:1036D000FFF7EEFD039B019A9A60039B029ADA6062
:1036E000039B029A9A61039B029A5A61029A019B78
:1036F000D218039B1A61039B009ADA61039B069A16
:103700001A6205B000BDC0460000000000000000C5
:1037100000B587B0039001920B236B440A1C1A700A
:10372000FFF7B6FD0EE0039B019A11001800FFF7AA
:10373000CFFD03000593059B002B03DAFFF7B0FDD7
:10374000059B27E0039B9B68002BECD0039B9B68A9
:103750005A1E039B9A60039B5B69591C039A516133
:103760000B226A4412781A70039B5A69039B1B69E7
:103770009A4203D3039BDA68039B5A61039BDB697C
:10378000002B04D0039BDB69039A10009847FFF7D6
:1037900087FD0023180007B000BDC04600000000F0
:1037A00000B585B0019001F09BFC019B5A69019B1B
:1037B0009B699A4205D1019B9B68002B01D0012394
:1037C00000E000231A1C01231340DBB20122534006
:1037D000DBB2002B20D0019B9B685A1C019B9A6096
:1037E000019B9B69591C019A91610F226A441B78C5
:1037F0001370019B9A69019B1B699A4203D3019B39
:10380000DA68019B9A61019B00211800FFF770FDA7
:103810000F236B441B7801E001235B42180005B0C5
:1038200000BDC046000000000000000000000000D5
:1038300000B589B00390029101920093039BDB696C
:103840000793019B0693019B5A425341DBB2002B25
:1038500003D01E4B180001F0DBFAFFF719FD29E039
:10386000019A0299039B1800FFF7BAFD0300059324
:10387000059B002B0BD1039B009A11001800FFF74A
:1038800027FD03000493049B002B16D112E0079B35
:10389000002B03D0039A079B10009847FFF700FD09
:1038A000019A059BD31A0193029A059BD3180293A0
:1038B000FFF7EEFC019B002BD2D1FFF7F1FC069A3B
:1038C000019BD31A180009B000BDC046A4B000087F
:1038D00072B6704700000000000000000000000009
:1038E00062B6704700000000000000000000000009
:1038F00010B5FFF7EDFF01F0FBFA10BD000000006E
:1039000010B501F01DFB0E4B1A680D4BD31A5A1E51
:103910009341DBB2002B0FD0094BDB689A68084B50
:103920001B689B689A429B415B42DBB2002B03D031
:10393000044B180001F06CFAFFF7D2FF10BDC0462F
:10394000280A0020C0B000080000000000000000AD
:1039500010B5FFF7CDFF10BD000000000000000013
:1039600010B5FFF7CDFF10BD000000000000000003
:1039700010B500F00DFD10BD0000000000000000BB
:1039800082B00190019B01221A70019B00225A60B3
:10399000019B0022DA60019B00221A7402B070477A
:1039A00000B585B001900091019B5A425341DBB2B2
:1039B000002B05D1009B5A425341DBB2002B03D0B0
:1039C0001C4B180001F024FAFFF7C2FF019B1B7883
:1039D000013B5A1E9341DBB2002B0BD0019B1B789D
:1039E000023B5A1E9341DBB2002B03D0114B18004F
:1039F00001F00EFA019B009A5A60009B5A68019BE5
:103A00009A60019B0022DA60019B180000F0F8FC2C
:103A100000230393039B002B03D1019B02221A7006
:103A200002E0019B01221A70FFF79AFF039B180026
:103A300005B000BDB4B000080000000000000000A8
:103A400000B585B0039001920B236B440A1C1A70D9
:103A5000039B5A425341DBB2002B0AD1039B1A7CD1
:103A60000B236B441978002391425B41DBB2002B9E
:103A700003D0144B180001F0CBF9FFF769FF039B4B
:103A80001B78023B5A1E9341DBB2002B03D00D4B37
:103A9000180001F0BDF9039BDA680B236B441B7817
:103AA000012199400B001A43039BDA60019A0B2312
:103AB0006B441978039B180000F03AFEFFF750FFA3
:103AC00005B000BDCCB00008000000000000000000
:103AD00072B6704700000000000000000000000007
:103AE00062B6704700000000000000000000000007
:103AF00010B5FFF7EDFF01F0FBF910BD000000006D
:103B000010B501F01DFA0E4B1A680D4BD31A5A1E50
:103B10009341DBB2002B0FD0094BDB689A68084B4E
:103B20001B689B689A429B415B42DBB2002B03D02F
:103B3000044B180001F06CF9FFF7D2FF10BDC0462E
:103B4000280A002018B10008000000000000000052
:103B500010B5FFF7CDFF10BD000000000000000011
:103B600010B5FFF7CDFF10BD000000000000000001
:103B700000B583B00190019B180003F091F903B0E8
:103B800000BDC04600000000000000000000000072
:103B900000B583B001900091009A019B11001800BC
:103BA00003F0D6F903B000BD0000000000000000E3
:103BB00000B585B0039002910192039B3033180049
:103BC00001235B42019A0299FFF732FE03001800BD
:103BD00005B000BD00000000000000000000000073
:103BE00000B585B0039002910192039B0C3318003D
:103BF00001235B42019A0299FFF712FD03001800AE
:103C000005B000BD00000000000000000000000042
:103C100000B583B001900A006B4603331A70019B14
:103C20003033180001235A426B4603331B781900C6
:103C3000FFF76EFD0300180003B000BD0000000098
:103C400000B583B00190019B0C3301225242110058
:103C50001800FFF79DFC0300180003B000BDC0462C
:103C600000B585B0039001920B236B440A1C1A70B7
:103C7000039B30331800019A0B236B441B78190007
:103C8000FFF746FD0300180005B000BD000000006E
:103C900000B583B001900091019B0C33009A110094
:103CA0001800FFF775FC0300180003B000BDC04604
:103CB00000B585B00390029101920093039B3033CD
:103CC0001800009B019A0299FFF7B2FD030018004B
:103CD00005B000BD00000000000000000000000072
:103CE00000B585B00390029101920093039B0C33C1
:103CF0001800009B019A0299FFF792FC030018003C
:103D000005B000BD00000000000000000000000041
:103D100000B587B0039002910192039B0593059B28
:103D20005A425341DBB2002B03D00F4B180001F075
:103D30006FF8029B002B0ED0029B012B0ED1019B32
:103D40005A1E9341DBB2002B03D0074B180001F041
:103D50005FF8002304E014235B4201E014235B427C
:103D6000180007B000BDC04608B100080000000000
:103D700010B500F06DFE10BD000000000000000056
:103D800000B583B00190019B054A1A60019B043382
:103D90001800FFF7EDFE019B01221A7203B000BD6F
:103DA000E0B000080000000000000000000000007B
:103DB00000B585B001900091019B5A425341DBB29E
:103DC000002B03D0184B180001F022F8FFF7C0FEBB
:103DD000019B1B7A013B5A1E9341DBB2002B0BD097
:103DE000019B1B7A023B5A1E9341DBB2002B03D08E
:103DF0000D4B180001F00CF8009A019B11001800FF
:103E000000F056FE00230393039B002B03D1019B7C
:103E100002221A7202E0019B01221A72FFF7A0FE31
:103E2000039B180005B000BD10B1000800000000A1
:103E300000B583B001900A006B4603331A7001F09D
:103E40004FF9019B5A425341DBB2002B03D0124B76
:103E5000180000F0DDFF019B5B69002B05D1019B81
:103E6000043304211800FFF793FE019B0C331A0062
:103E70006B4603331B7819001000FFF741FB031E4C
:103E800007DA019B04338022120111001800FFF7AA
:103E90007FFE03B000BDC04624B100080000000052
:103EA00082B0019000911B4A019B9B08C0339B008C
:103EB0009B58019A03210A40D200FF2191400A0039
:103EC000D2431A401100009B9A01019B032003403A
:103ED000DB009A400F48019B9B080A43C0339B00BC
:103EE0001A50019B1F221A400A49019B5B090120BD
:103EF0009040020060339B005A50019B1F221A40E1
:103F00000449019B5B090120904002009B005A502C
:103F100002B0704700E100E0000000000000000077
:103F200000B583B07346019301F082F801F0A8F860
:103F3000019B180003F074FD03B000BD00000000F9
:103F400000B583B07346019301F072F8054B180079
:103F500000F0D6FD01F094F8019B180003F060FD1D
:103F600003B000BDA0090020000000000000000018
:103F700000B583B07346019301F05AF801F080F860
:103F8000019B180003F04CFD03B000BD00000000D1
:103F900010B503210520FFF783FF03210620FFF75B
:103FA0007FFF03210720FFF77BFF03211B20FFF783
:103FB00077FF03211C20FFF773FF03211D20FFF76C
:103FC0006FFF10BD000000000000000000000000B6
:103FD000154B1A68144B802149000A431A60134B91
:103FE0001A6AC0239B001A4080239B009A4206D085
:103FF0000E4B802252021A620C4B00221A620B4BAB
:104000001A6A80231B0213400DD1084B1A6A074B12
:10401000802189000A431A62044B1A6A034B8021EB
:1040200009020A431A627047007000400010024003
:1040300010B51C4B9A6A1B4B1B490A439A62194BD9
:10404000996A184BBC22D2030A409A62154B9B6AAC
:10405000144B1B69134B012252421A61114B1B690D
:10406000104B00221A610F4B1B690E4BDA680D4B87
:104070000E490A43DA600B4BD9680A4B8022D203FF
:104080000A40DA60074BDB68064BDA69054B802192
:1040900049050A43DA61034BDB69FFF799FFFFF734
:1040A00077FF10BD00100240FFFFA1FFFFFFBFFF21
:1040B000344B1A68334B01210A431A60314B1B6899
:1040C00002221340FAD02F4B5A682E4B03218A4309
:1040D0005A602C4B5B680C221340FAD1294B1A68AA
:1040E000284BF9210A401A60264B00225A60254BC2
:1040F0005A6B244B01210A435A63224B5B6B022209
:104100001340FAD01F4B5A6A1E4B01210A435A62D0
:104110001C4B5B6A02221340FAD01A4B0022DA626F
:10412000184BA02292035A60164B00221A63154BBB
:104130001A68144B802149040A431A60114B1A680B
:1041400080239B041340F9D00F4B11221A600E4BB1
:104150001B6801221340012BF9D10A4B5A68094B05
:1041600002210A435A60074B5B680C221340082B5C
:10417000F9D1044B9A69034B01210A439A61014B1F
:104180009B697047001002400020024000000000C0
:104190007047C04600000000000000000000000062
:1041A00072B6704700000000000000000000000030
:1041B00062B6704700000000000000000000000030
:1041C00010B5FFF7EDFF10BD00000000000000007B
:1041D00010B5FFF7EDFF10BD00000000000000006B
:1041E00010B5FFF7EDFF00F0D3FE10BD000000009A
:1041F00010B500F0F5FEFFF7EBFF10BD000000006A
:1042000010B5FFF7EDFF10BD00000000000000003A
:1042100010B5FFF7EDFF10BD00000000000000002A
:1042200010B500F02DFE10BD0000000000000000E1
:1042300000B583B07346019300F0FAFE00F040F839
:1042400000F01EFF019B180003F0EAFB03B000BD65
:1042500010B5164BDA69154B802149000A43DA6123
:10426000124BDB69124B9A68114B802149000A43BB
:104270009A60104B104A9A620E4B104ADA620D4B4C
:1042800000229A610B4B00225A630A4B0022DA602B
:10429000084B00225A60074B01225A61054B01224C
:1042A0001A6002211320FFF7FBFD10BD0010024031
:1042B0000058014000200040BF120000FFFF000036
:1042C00000B583B00D4B0193019B1B690093019BCB
:1042D000DB68FF221A40009B13400093009BDA43E7
:1042E000019B1A61009B0222134005D0FFF788FF53
:1042F000FFF796FFFFF78CFF03B000BD00200040E2
:1043000000B583B07346019300F092FE054B180090
:1043100000F026FA00F0B4FE019B180003F080FBC9
:1043200003B000BD400900200000000000000000B4
:1043300000B583B07346019300F07AFE054B180078
:1043400000F00EFA00F09CFE019B180003F068FBE1
:1043500003B000BD40090020000000000000000084
:1043600000B583B07346019300F062FE054B180060
:1043700000F0F6F900F084FE019B180003F050FBFA
:1043800003B000BD60090020000000000000000034
:1043900010B5144B1800FFF7F3FA124B04221A74ED
:1043A000104B114ADA610F4B01221A760F4B18009D
:1043B000FFF7E6FA0D4B04221A740C4B0C4ADA6133
:1043C0000A4B00221A760B4B1800FFF7D9FA094B5B
:1043D00002221A74074B084ADA61064B01221A7648
:1043E00010BDC04640090020002C0140600900209B
:1043F000000400408009002000400140000000004F
:1044000000B585B00190019B1B78012B6FD1019AFB
:10441000BD4B9A4222D1BD4B9A69BC4B8021090108
:104420000A439A61B94B9B69B84BDA68B74B802154
:1044300009010A43DA60B54BDA68B44BB4490A4063
:10444000DA60B24BDB6803210D20FFF729FD032161
:104450000E20FFF725FD019BAE4A5A61019AAE4B33
:104460009A421CD1A94BDA69A84B02210A43DA61AE
:10447000A64BDB69A54B1A69A44B02210A431A61BA
:10448000A24B1A69A14B02218A431A619F4B1B69F7
:1044900003211020FFF704FD019B9E4A5A61019AF7
:1044A0009E4B9A421AD1994B9A69984B80214902A6
:1044B0000A439A61954B9B69944BDA68934B802130
:1044C00049020A43DA60914BDA68904B94490A40FA
:1044D000DA608E4BDB68019B8E4A5A61019BDB6977
:1044E000904A9A61019BDB698E4ADA6117E0019B71
:1044F000DB6900221A60019BDB6900225A63019B81
:10450000DB6900229A63019BDB690022DA63019B6D
:10451000DB6900221A64019BDB6900225A62019B5D
:104520005A69019B5B681B6819001000FEF74AFA84
:104530000300013B0293029980235A020023914217
:104540005B41DBB2002B0DD1029B5A1C019B5B68C7
:104550001B685A43019B5B69D31A5A1E9341DBB215
:10456000002B03D0704B180000F052FC019BDB695C
:10457000029A9A62019B9A68019BDB69013ADA62AE
:10458000019B5A68019BDB69D26A5A60002303933E
:10459000019B5B68DB680F221340012B05D0022BC7
:1045A00007D1039B022213430393039B012213436E
:1045B0000393019B5B685B690F221340012B05D0BD
:1045C000022B07D1039B202213430393039B10224A
:1045D00013430393019B5B68DB690F221340012B9C
:1045E00006D0022B09D1039B802292001343039330
:1045F000039B8022520013430393019B5B685B6A19
:104600000F221340012B06D0022B09D1039B8022DD
:10461000920113430393039B80225201134303939C
:10462000019B1B7E002B47D0019B5B68DB68F0225F
:104630001340102B05D0202B07D1039B08221343D6
:104640000393039B042213430393019B5B685B6901
:10465000F0221340102B05D0202B07D1039B802282
:1046600013430393039B402213430393019B5B6813
:10467000DB69F0221340102B06D0202B09D1039BBD
:104680008022120113430393039B8022D200134321
:104690000393019B5B685B6AF0221340102B06D0EA
:1046A000202B09D1039B8022120213430393039B07
:1046B0008022D20113430393019BDB69039A1A62A0
:1046C000019BDB6901225A61019BDB6900221A61AF
:1046D000019B5B685A6B019BDB69FF218A43DA60AF
:1046E000019B1B7E002B08D0019B5B681A6B019B12
:1046F000DB69802109020A435A64019BDB69852238
:104700001A6005B000BDC0464009002000100240FC
:10471000FFF7FFFF006CDC02600900208009002029
:10472000FFFFFEFF6868000034B1000800000000D1
:1047300084B0039001920B236B440A1C1A70039BF4
:10474000DA690B236B441B780C339B00D3180433BA
:10475000019A1A6004B070470000000000000000D9
:1047600000B585B00190019BDB691B690393019B38
:10477000DB69DB68FF221A40039B13400393019B14
:10478000DB69039AD2431A61039B022213400AD0C9
:10479000019B5B681B69002B05D0019B5B681B6953
:1047A000019A10009847039B042213400AD0019BF2
:1047B0005B689B69002B05D0019B5B689B69019A34
:1047C00010009847039B082213400AD0019B5B68A6
:1047D0001B6A002B05D0019B5B681B6A019A1000C5
:1047E0009847039B102213400AD0019B5B689B6A89
:1047F000002B05D0019B5B689B6A019A10009847CB
:10480000039B012213400AD0019B5B689B68002B2D
:1048100005D0019B5B689B68019A1000984705B022
:1048200000BDC046000000000000000000000000C5
:1048300072B6704700000000000000000000000099
:1048400062B6704700000000000000000000000099
:1048500010B5FFF7EDFF10BD0000000000000000E4
:1048600010B5FFF7EDFF10BD0000000000000000D4
:1048700010B5FFF7EDFF00F08BFB10BD000000004E
:1048800010B500F0ADFBFFF7EBFF10BD000000001E
:1048900010B5FFF7EDFF10BD0000000000000000A4
:1048A00010B5FFF7EDFF10BD000000000000000094
:1048B00000B583B001900091009A019B110018008F
:1048C00002F046FB03B000BD000000000000000045
:1048D00000B587B001900091019B5B6D0493019B33
:1048E0009B6D0393009B1B685A08039BD218009B87
:1048F0001B6819001000FEF765F803000593009B84
:104900005A6880231B02134008D0059B072293435B
:104910005A00059B07210B401343059305998023FB
:104920005A02002391425B41DBB2002B03D0204BA3
:10493000180000F06DFA049B059ADA60009B9A68F3
:10494000049B5A60009BDB6801221A43049B9A6017
:10495000009B5B682E22FF321A43049B1A60049B63
:10496000012252421A62009B5A688023DB001340E6
:1049700018D0009B5B680F4A134004D08022520578
:10498000934205D009E0019B5C227F2199540DE000
:10499000019B5C223F21995408E0019B5C22FF218E
:1049A000995403E0019B5C22FF21995407B000BD9C
:1049B00054B10008001000100000000000000000CA
:1049C00000B585B00190009100230393009B08225D
:1049D000134004D0039B8022520013430393009B97
:1049E0000122134003D0039B202213430393009B17
:1049F0000222134003D0039B402213430393009BE6
:104A00000422134003D0039B802213430393FFF738
:104A10003FFF019B0433039A11001800FFF748FF82
:104A2000FFF73EFF05B000BD0000000000000000E1
:104A300082B00190034B1A68024BC0210A431A60EE
:104A400002B0704700440040000000000000000079
:104A500000B583B00E4B1800FFF792F90D490E48D0
:104A60000B4B009300231022FEF722FD0B4A0C494A
:104A70000C48074B009313001022FEF721FE044B55
:104A8000094A5A65024B094A9A6503B000BDC046FF
:104A9000A0090020000A0020AC090020314A0008CB
:104AA000100A0020D009002000440040006CDC0205
:104AB00000B583B001900091009B002B01D10D4BFC
:104AC0000093019B1B7A012B0CD1019A0A4B9A424D
:104AD00008D10A4BDA69094B802189020A43DA615D
:104AE000064BDB69009A019B11001800FFF7F0FEEE
:104AF00003B000BD44B10008A0090020001002402E
:104B000000B587B00190019B5B6D0493049B1B680B
:104B10000393049BDB690593049B059A1A62059B2A
:104B20000F2213401BD0059A019B11001800FFF7BC
:104B300047FF14E0FFF7ACFE049B9B8C9BB2DBB2FB
:104B4000019A5C21525C1340DAB2019B11001800FB
:104B5000FFF76EF9FFF7A4FE049BDB690593059B45
:104B600020221340E6D1039B8022134024D127E06A
:104B7000FFF78EFE019B30331800FEF711FE030095
:104B80000293029B002B0EDA019B043308211800CC
:104B9000FFF78EFE039B802293431A00049B1A604A
:104BA000FFF77EFE0CE0029B9AB2049B1A85FFF78A
:104BB00077FE049BDB690593059B80221340D7D1C8
:104BC000039B4022134026D0059B4022134022D055
:104BD000FFF75EFE019B5A6C019B9B6C9A4205D1CC
:104BE000019B9B6B002B01D0012300E000231A1CCA
:104BF00001231340DBB2002B0BD0019B04331021A7
:104C00001800FFF755FE039B402293431A00049BB4
:104C10001A60FFF745FE07B000BDC0460000000067
:104C200082B001900091009B5A68019B5A60009BE2
:104C30009A68019B9A60009BDA68019BDA60009B8E
:104C40001A69019B5A61009B5A69019B1A62009B79
:104C50009A69019B5A62009B1A68019B1A6002B014
:104C60007047C04600000000000000000000000087
:104C700010B51C4B9A6A1B4BBC21C9030A439A62AC
:104C8000184B9A6A174B18490A409A62154B9B6A4F
:104C9000144B5A69134BBC21C9030A435A61114B87
:104CA0005B69124A9023DB0511001800FFF7B8FF7B
:104CB0000F4B104A19001000FFF7B2FF0E4B0F4ABE
:104CC00019001000FFF7ACFF0D4B0E4A1900100041
:104CD000FFF7A6FF0C4B0D4A19001000FFF7A0FFCD
:104CE00010BDC04600100240FFFFA1FF60B10008E8
:104CF0007CB100080004004898B100080008004892
:104D0000B4B10008000C0048D0B1000800140048FD
:104D100010B5FFF7ADFFFFF7CBF910BD00000000A5
:104D20007047C046000000000000000000000000C6
:104D300062B67047000000000000000000000000A4
:104D400072B6704700000000000000000000000084
:104D500010B500F0F5F80E4B1A680D4BD31A5A1E19
:104D60009341DBB2002B0FD0094BDB689A68084BEC
:104D70001B689B689A429B415B42DBB2002B03D0CD
:104D8000044B180000F044F8FFF7D2FF10BDC046F6
:104D9000280A0020A4B20008000000000000000063
:104DA00010B502F0CDF902F04BFA02F041FD10BD52
:104DB00000B583B0104B01221A700023019309E063
:104DC0000D4A019B9B00D318043300221A60019BFB
:104DD00001330193019B002BF2D0FFF7E1FF074A5B
:104DE000074B1100180001F01BF9034B02221A7047
:104DF000FFF7AEFF03B000BD200A002090B200080C
:104E0000280A002000000000000000000000000050
:104E100000B583B00190FFF793FF044B8821019AFE
:104E20005A50034B03221A70FEE7C046280A00209E
:104E3000200A002000000000000000000000000028
:104E400000B583B0094B5B680193019B9B68013BF4
:104E50005A1E9341DBB2002B03D0054B1800FFF71D
:104E6000D7FF019B180003B000BDC046280A0020F0
:104E7000B0B20008000000000000000000000000C8
:104E800010B500F02DF900F0A3FC10BD00000000EB
:104E900082B00190034B5A6B019B1A43014B5A633A
:104EA00002B07047280A0020000000000000000047
:104EB00072B6704700000000000000000000000013
:104EC00062B6704700000000000000000000000013
:104ED00010B5FFF7EDFF10BD00000000000000005E
:104EE00010B5FFF7EDFF10BD00000000000000004E
:104EF00000B583B00D4B0193019B8C229B585A1E29
:104F00009341DBB2002B07D1019B90229B585A1E84
:104F10009341DBB2002B03D0054B1800FFF778FF5D
:104F2000019B90220121995003B000BD280A002066
:104F3000C4B20008000000000000000000000000F3
:104F400000B583B00E4B0193019B8C229B585A1ED7
:104F50009341DBB2002B08D1019B90229B585A1E33
:104F60001343DB0FDBB2002B03D0064B1800FFF717
:104F70004FFF019B90220021995003B000BDC04615
:104F8000280A0020CCB20008000000000000000049
:104F900000B583B00E4B0193019B8C229B585A1E87
:104FA0001343DB0FDBB2002B07D1019B90229B58F0
:104FB0005A1E9341DBB2002B03D0064B1800FFF7BB
:104FC00027FF019B90220121995003B000BDC046EC
:104FD000280A0020D4B200080000000000000000F1
:104FE00000B583B00E4B0193019B8C229B585A1E37
:104FF0001343DB0FDBB2002B08D1019B90229B589F
:105000005A1E1343DB0FDBB2002B03D0054B1800F5
:10501000FFF7FEFE019B90220021995003B000BDD6
:10502000280A0020DCB20008000000000000000098
:1050300000B583B0104B0193FFF74AFF019B8C2210
:105040009B58DB0FDBB2002B07D1019B90229B58B2
:105050005A1E9341DBB2002B03D0084B1800FFF718
:10506000D7FE019B8C229B585A1C019B8C215A50C5
:10507000FFF736FF03B000BD280A0020E4B20008A5
:1050800000B583B0114B0193FFF722FF019B8C22E7
:105090009B585A1E1343DB0FDBB2002B07D1019B39
:1050A00090229B585A1E9341DBB2002B03D0084B31
:1050B0001800FFF7ADFE019B8C229B585A1E019BE6
:1050C0008C215A50FFF70CFF03B000BD280A0020C6
:1050D000ECB200080000000000000000000000002A
:1050E00000B583B00B4B0193019B8C229B58DB0FC7
:1050F000DBB2002B08D1019B90229B585A1E134310
:10510000DB0FDBB2002B03D0034B1800FFF780FE50
:1051100003B000BD280A0020F4B20008000000001F
:1051200000B583B00C4B0193019B8C229B585A1EF7
:105130009341DBB2002B08D1019B90229B585A1E51
:105140001343DB0FDBB2002B03D0044B1800FFF737
:105150005FFE03B000BDC046280A0020FCB2000874
:1051600000B583B0020000916B4606331A800099A7
:1051700080235A02002391425B41DBB2002B03D013
:10518000064B1800FFF744FE009B9AB26B460633AD
:105190001B88D3189BB2180003B000BD04B30008ED
:1051A00082B002006B4606331A8001AB0A1C1A80DB
:1051B00001AA6B46063312881B88D31A9BB21800CB
:1051C00002B0704700000000000000000000000076
:1051D00082B00190019B1B68019AD31A5A42534135
:1051E000DBB2180002B070470000000000000000B1
:1051F00082B001900091019B1B68009AD31A5A4219
:105200005341DBB2180002B07047C04600000000F6
:1052100084B0039002910192029B019A9A60029BD2
:10522000039A5A60029B5B681A68029B1A60029B91
:105230001B68029A5A60039B029A1A6004B0704776
:1052400084B0039002910192029B019A9A60029BA2
:10525000039A1A60029B1B685A68029B5A60029B61
:105260005B68029A1A60039B029A5A6004B0704706
:1052700000B587B0039002910192039B1B680593D0
:1052800013E0059A029BD31A5A425341DBB2002B1A
:1052900003D0134B1800FFF7BBFD059B9B68019AD9
:1052A000D31A0193059B1B680593059B9A68019B84
:1052B0009A429B415B42DBB2002BE2D1019A0299F8
:1052C000059B1800FFF7BCFF059B9A68019BD21A4B
:1052D000059B9A60039B012252429A6007B000BD71
:1052E00010B30008000000000000000000000000F3
:1052F00084B00190019B1B680393039B1A68019B78
:105300001A60019B1B68019A5A60039B180004B045
:105310007047C046000000000000000000000000D0
:1053200082B00190019B5B68019A12681A60019B30
:105330001B68019A52685A60019B180002B07047BE
:1053400072B670470000000000000000000000007E
:1053500062B670470000000000000000000000007E
:1053600010B5FFF7EDFF10BD0000000000000000C9
:1053700010B5FFF7EDFF10BD0000000000000000B9
:1053800000B583B002006B4606331A806B460633C5
:105390001B881800FDF7F4FE03B000BD00000000FC
:1053A00010B5FDF705FF10BD000000000000000073
:1053B00000B583B002006B4606331A806B46063395
:1053C0001B881800FDF7FCFE03B000BD00000000C4
:1053D00010B5FDF7CDFE0300180010BD0000000061
:1053E00010B5FFF7BDFFFFF7D3FD10BD00000000B3
:1053F00010B5FFF7F5FDFFF7BBFF10BD0000000083
:1054000010B5FFF7E5FF0300180010BD0000000015
:1054100000B583B00190FFF763FE019B1B685A1E25
:105420009341DBB2180003B000BDC046000000008D
:1054300010B586B0020000916B4606331A80022335
:105440000593009A059B9A4202D2059B009307E0C0
:10545000009AFF231B029A4202D9FF231B020093EA
:10546000009A6B4606331B8811001800FFF778FE80
:1054700003001800FFF79CFF12246C44FFF7C0FFE5
:105480000300238012236B441A886B4606331B8863
:1054900011001800FFF784FE03000393039A009B9A
:1054A0009A429B415B42DBB2002B0BD1059B01333F
:1054B00005936B46063312226A4412881A80059BB4
:1054C0000093CDE7059B022B02D90120FFF7E0FCFA
:1054D00006B010BD00000000000000000000000049
:1054E00010B586B00390029100936B4606331A8084
:1054F000039B6A46063212889A81039B0299009A9E
:105500001800FFF785FE02230593009A059B9A4237
:1055100002D2059B009307E0009AFF231B029A42E8
:1055200002D9FF231B020093039B9B89009A110061
:105530001800FFF715FE03001800FFF721FF1224E3
:105540006C44FFF75DFF0300238012236B441A882D
:105550006B4606331B8811001800FFF721FE02007E
:10556000009B9A429B415B42DBB2002B17D1059B0B
:1055700001330593059A6B4606331B88110018000A
:10558000FFF7EEFD03001800FFF712FF6B4606332E
:1055900012226A4412881A80059B0093CFE7059B6C
:1055A000022B02D90120FFF773FC06B010BDC046E4
:1055B00010B588B00390029101921A246C44FFF751
:1055C0001FFF03002380039B1800FFF701FE031E4B
:1055D00009D0019C1A236B441A880299039823006E
:1055E000FFF77EFF28E0039B9A891A236B441B88F0
:1055F00019001000FFF7D4FD03000593059A019BE5
:10560000D3180793079A059B9A4201D2019B0793EF
:10561000039B1B689B68079A9A4207D2019A1A2338
:105620006B441B8811001800FFF702FF039B0299CF
:10563000079A1800FFF71CFE08B010BD000000001C
:1056400000B587B00390029101920093174B059328
:10565000FFF746FD039B5A425341DBB2002B05D1B5
:10566000019B5A425341DBB2002B01D0012300E0E1
:105670000023002B05D1029B5A425341DBB2002B81
:1056800003D00B4B1800FFF7C3FB039B009A1A6172
:10569000039B019ADA60039B00225A61029A0399E4
:1056A000059B1800FFF784FF07B000BD380A0020F3
:1056B00020B300080000000000000000000000000F
:1056C00010B586B00190404B0593FFF709FD019B93
:1056D0005A425341DBB2002B03D03C4B1800FFF77A
:1056E00097FB019B1800FFF793FE03001A000123AC
:1056F0005340DBB2002B03D0344B1800FFF788FB7C
:10570000059B019A11001800FFF772FD03001A00B3
:1057100001235340DBB2002B14D0019B1800FFF78C
:10572000FFFD019B1B689968019B9A68019B1B68A0
:105730008A189A60019B00221A60059B012252423E
:105740009A603FE0059B1800FFF7D2FD019B002205
:105750001A60059B1800FFF73BFD031E02D0FFF700
:105760001FFE2FE0059B1B689968019B9A68059BAB
:105770001B688A189A6012246C44FFF741FE0300EC
:105780002380059B9A8912236B441B881900100003
:10579000FFF706FD03000393059B1B689B68039AB4
:1057A0009A420ED2059B1B689A68039BD31A0293F8
:1057B000029A12236B441B8811001800FFF738FE71
:1057C00000E0C04606B010BD380A00202CB3000827
:1057D00010B588B05B4B0593FFF782FC059B1B68F7
:1057E00004930E246C44FFF70BFE03002380059BFB
:1057F0009A890E236B441B8819001000FFF7D0FC18
:1058000003000293049B9B68029A9A4200D278E0BC
:10581000059B9A89049B9B6869468C1D19001000A2
:10582000FFF79EFC03002380059B6A460632128820
:105830009A81049B1800FFF773FD049B00221A60F5
:10584000059B1800FFF7C4FC031E01D0FFF7A8FD5D
:10585000FFF7CEFD049BDA68049B1969049B1800CE
:105860009047FFF7BDFD049B5B695A1E9341DBB275
:10587000002BB3D00E246C44FFF7C2FD030023803D
:105880000E236B441A886B4606331B8811001800E0
:10589000FFF786FC03000293049B5B69029A9A421D
:1058A00009D9294B1800FFF7B3FA0220FFF7F0FAE5
:1058B0000023069304E0049B5A69029BD31A0693C3
:1058C000059B1800FFF784FC031E09D0069C0E23DD
:1058D0006B441A88049905982300FFF701FE2FE016
:1058E000029A069BD3180793079A029B9A4201D209
:1058F000069B0793059B0499079A1800FFF7B8FCCD
:105900006CE7059B1800FFF763FC031E17D1059B8E
:105910009A89029B9BB2D3189AB2059B9A81049BE9
:105920009A68029BD21A049B9A60049B9A680E2381
:105930006B441B8811001800FFF77AFD00E0C04699
:1059400008B010BD380A00203CB300080000000079
:1059500082B00190019B5B68019A12681A60019BFA
:105960001B68019A52685A60019B180002B0704788
:1059700084B00190019B1B680393039B1A68019BF1
:105980001A60019B1B68019A5A60039B180004B0BF
:105990007047C0460000000000000000000000004A
:1059A00082B001900091019B1B680193019B996853
:1059B000009B9A68002391425B41DBB2002BF2D13D
:1059C000009B019A1A60019B5A68009B5A60009BD9
:1059D0005B68009A1A60019B009A5A60009B18004D
:1059E00002B070470000000000000000000000004E
:1059F00082B001900091019B1B680193019B9A6802
:105A0000009B9B6893429B415B42DBB2002BF2D12F
:105A1000009B019A1A60019B5A68009B5A60009B88
:105A20005B68009A1A60019B009A5A60009B1800FC
:105A300002B07047000000000000000000000000FD
:105A400072B6704700000000000000000000000077
:105A500062B6704700000000000000000000000077
:105A600010B5FFF7EDFF10BD0000000000000000C2
:105A700010B5FFF7EDFF10BD0000000000000000B2
:105A800010B5FFF7EDFFFFF783FA10BD000000002F
:105A900010B5FFF7A5FAFFF7EBFF10BD00000000FF
:105AA00000B583B00190FFF71BFB019B1B685A1EDA
:105AB0009341DBB2180003B000BDC04600000000F7
:105AC00000B583B00190FFF70BFB019B9B685A1C4C
:105AD000019B9A6003B000BD0000000000000000C0
