:1000000012C015C648C62AC0E5C628C027C026C0EB
:1000100025C024C023C022C021C020C079C61EC074
:100020001DC01CC01BC011241FBECFE5D4E0DEBF25
:10003000CDBF10E0A0E6B0E0E0E6FEE102C0059032
:100040000D92A23EB107D9F721E0A2EEB0E001C0C7
:100050001D92A831B207E1F709D300CFD1CFCF93DA
:10006000DF9300D01F92CDB7DEB71A8219821B82B0
:100070008EE9B5D780E0FAD78FE9B1D71FD8882F9E
:1000800090E0982F88279A8389832FD8882F90E033
:1000900029813A81822B932B9A83898359D989812B
:1000A0009A810F900F900F90DF91CF910895CF9389
:1000B000DF93CDB7DEB78EE992D781E0D7D781E065
:1000C000D5D746D9DF91CF910895CF93DF93CDB7A0
:1000D000DEB78EE984D781E0C9D780E0C7D738D9A9
:1000E000DF91CF910895CF93DF93CDB7DEB785E54C
:1000F00090E025E530E0F90120812A60FC012083B1
:100100008BE590E02BE530E0F9012081206CFC01CB
:100110002083DF91CF910895CF93DF93CDB7DEB7E2
:1001200085E490E025E430E0F90120812860FC01BD
:10013000208385E490E025E430E0F90120812F7BE5
:10014000FC01208383E490E02FEFFC01208385E411
:1001500090E025E430E0F90120812760FC01208354
:1001600089E590E029E530E0F90120812064FC0177
:100170002083DF91CF910895CF93DF9300D000D0FB
:1001800000D0CDB7DEB79E838D8319821A821C8280
:100190001B828D819E81892F992789838D818A83F6
:1001A0008EE91DD781E062D78EE919D788E15ED745
:1001B000CFD88EE914D783E059D7898157D78A8160
:1001C00055D78FE90CD77AD7882F90E0982F8827BA
:1001D0009C838B838AD7882F90E02B813C81822B54
:1001E000932B9C838B83B4D826960FB6F894DEBFEE
:1001F0000FBECDBFDF91CF910895CF93DF93CDB7E1
:10020000DEB787E290E020E4FC01208386E290E004
:100210002CEAFC012083789486E290E026E230E02C
:10022000F90120812064FC012083DF91CF910895A2
:10023000CF93DF931F92CDB7DEB7898387E290E03B
:10024000298123702064FC0120830F90DF91CF91DE
:100250000895CF93DF93CDB7DEB78FE490E021E828
:10026000FC0120838EE490E02CE0FC0120838AE4F2
:1002700090E0FC011182108288E490E0FC01118280
:100280001082DF91CF910895CF93DF93CDB7DEB782
:100290003ED684E690E071D68DD6E1DEAEDF23DF78
:1002A00080E095E569DF38DFD4DF789487E390E07C
:1002B00027E330E0F90120812760FC01208381E3FE
:1002C00090E021E330E0F9012081206FFC012083E0
:1002D00082E390E022E330E0F90120812F70FC01FD
:1002E000208382E390E022E330E0F90120812C605A
:1002F000FC01208388E390E028E330E0F9012081CD
:100300002B7FFC0120838FEF91E0F9DC982F892F60
:10031000880F890F8093E300DF91CF910895CF93E9
:10032000DF93CDB7DEB78BE690E027D682E08093EF
:10033000F2008FE490E02FE430E0F90120812F7784
:10034000FC0120838AE490E0FC011182108288E4A1
:1003500090E0FC011182108287E390E027E330E017
:10036000F90120812D7FFC01208388E390E028E3C0
:1003700030E0F90120812160FC01208385E590E0D7
:1003800025E530E0F90120812F782062FC012083EF
:1003900085E590E025E530E0F90120812068FC0149
:1003A0002083889585E590E025E530E0F9012081FE
:1003B0002F77FC012083DF91CF910895CF93DF93B6
:1003C00000D000D01F92CDB7DEB78D838D81898399
:1003D000809115018A83809116018B83809117018A
:1003E0008C838981882F90E02091E300222F30E0D8
:1003F000BC01C90189DC8A81282F30E08091E300AB
:10040000882F90E00196B9017FDC8B81282F30E0A6
:100410008091E300882F90E00296B90175DC8C8111
:10042000282F30E08091E300882F90E00396B901F7
:100430006BDC8091E300882F90E00196BC018FEF88
:1004400091E062DC0F900F900F900F900F90DF9172
:10045000CF910895CF93DF93CDB7DEB78091E400BD
:10046000E7DE8091E400882F90E08130910581F0F3
:1004700082309105B9F0892B09F032C084E290E016
:10048000FC01808191819093EA008093E90028C06B
:1004900084E290E0FC01808191819093E60080935A
:1004A000E5001EC084E290E0FC0180819181969578
:1004B000879596958795882F90E09093E800809394
:1004C000E7008091E7009091E8008D3F910538F0BA
:1004D0008CEF90E09093E8008093E70000C000006C
:1004E0008091E4008F5F8093E4008091E40083308A
:1004F00010F01092E400DF91CF910895CF93DF9335
:10050000CDB7DEB78091E9009091EA00853B92403B
:1005100050F082E390E022E330E0F9012081206F87
:10052000FC01208346C08091E9009091EA00853962
:10053000924098F082E390E022E330E0F9012081DC
:10054000206EFC01208382E390E022E330E0F90199
:1005500020812F7EFC0120832CC08091E9009091A6
:10056000EA008137924098F082E390E022E330E0A5
:10057000F9012081206CFC01208382E390E022E3DA
:1005800030E0F90120812F7CFC01208312C082E33E
:1005900090E022E330E0F90120812068FC01208313
:1005A00082E390E022E330E0F90120812F78FC0122
:1005B00020838091ED00882351F088E390E028E3C8
:1005C00030E0F90120812460FC01208309C088E328
:1005D00090E028E330E0F90120812B7FFC012083AB
:1005E000DF91CF910895CF93DF9300D0CDB7DEB7E1
:1005F00019821A828091F300282F30E08091E70061
:100600009091E8004FEF50E0BA01681B790BCB01E5
:100610008217930710F01092F4008091F3008C3F42
:1006200019F481E08093F4008091F400882349F468
:100630008091F30089838091F3008F5F8093F300B2
:1006400008C08091F30089838091F30081508093EA
:10065000F300B7D883708A8399818A81890F89834F
:1006600089810F900F90DF91CF9108950F931F9381
:10067000CF93DF93CDB7DEB7EB970FB6F894DEBF1D
:100680000FBECDBF01DE1A8219821B821C821D8221
:1006900080E090E0A0E8BFE388879987AA87BB87BE
:1006A00081E08E8382E0C4DD1F8215C0000080914E
:1006B000EF008823E1F384E290E0FC0180819181E6
:1006C0008D35924028F48D818F5F8D831092EF00DD
:1006D0008F818F5F8F838F81883040F38D8187304A
:1006E00040F181E08093EE008091F000882301F1D9
:1006F00084E290E0FC0180819181292F2F938F93D8
:1007000087E790E0892F8F9387E790E08F9385EFBD
:1007100090E0892F8F9385EF90E08F9361D80F90B1
:100720000F900F900F900F900F9085EF90E025D4D1
:10073000F6DD1C8680E390E0FC01808188708C8768
:1007400085EF90E01AD48C85882309F084C081E07D
:100750008093F00080E990E010D482E390E022E3FF
:1007600030E0F9012081206FFC01208380E090E0DF
:10077000A6E9B3E48D879E87AF87B88B20E030E091
:100780004AEF54E46D857E858F85988963D7DC01B7
:10079000CB01898B9A8BAB8BBC8B20E030E040E89F
:1007A0005FE369897A898B899C8943D688232CF4F5
:1007B00081E090E09E8B8D8B3BC020E03FEF4FE7C8
:1007C00057E469897A898B899C8940D718163CF54A
:1007D00020E030E040E251E46D857E858F85988988
:1007E00039D7DC01CB01BC01CD018FD6DC01CB01B7
:1007F0009E8B8D8B0FC088EC90E0988F8F8B8F89AC
:10080000988D0197F1F7988F8F8B8D899E8901972D
:100810009E8B8D8B8D899E89892B69F713C0698981
:100820007A898B899C8971D6DC01CB019E8B8D8B5B
:100830008D899E899A8F898F898D9A8D0197F1F77D
:100840009A8F898F82E390E022E330E0F9012081E2
:100850002F70FC01208349815A81CA0192958295AB
:100860008F7089279F7089279C01A7E4B3E055D733
:1008700096958795969587959695879560E177E209
:10088000869F9001879F300D969F300D1124CA01DD
:10089000821B930B892B09F066C0E1DB9093EC007F
:1008A0008093EB008091F0008823B1F16091E70024
:1008B0007091E8004091E5005091E6002091E90038
:1008C0003091EA008091EB009091EC00E72FEF93DC
:1008D0006F93652F6F934F93432F4F932F93292F30
:1008E0002F938F9380EA90E0892F8F9380EA90E096
:1008F0008F9385EF90E0892F8F9385EF90E08F9312
:100900006FD78DB79EB70C960FB6F894DEBF0FBEAB
:10091000CDBF85EF90E031D38091EB009091EC005A
:100920008130954550F08C81873020F080E046DDA5
:10093000F6DC70C18C818F5F8C831A821982809162
:10094000E9009091EA008D35924068F48FEA90E0DA
:1009500014D38D81843020F081E030DDE0DC5AC199
:100960008D818F5F8D8376DD9B818E819817C9F491
:100970000AE410E038DE882F90E0F801918380834C
:100980008091E5009091E6009C01A9E8B8E8C5D601
:100990009695879596958795969587958F5F8E8383
:1009A0001B828091F100813009F046C049815A8153
:1009B000CA0196958795969587959C01ABE7B4E11A
:1009C000ACD69695879564E6689F9001699F300D37
:1009D0001124CA01821B930B892B71F580E390E0EF
:1009E000FC018081882F90E088709927892B19F16C
:1009F00082E390E022E330E0F90120812F70FC01D6
:100A0000208388E390E028E330E0F90120812B7F08
:100A1000FC0120831092F1008BE590E02BE530E0A3
:100A2000F90120812068FC0120838091F20082304E
:100A300019F475DC01C062DD80E090E0A8ECB1E45F
:100A40008B8F9C8FAD8FBE8F2BEA3AEA4AE250E43F
:100A50006B8D7C8D8D8D9E8DFDD5DC01CB018F8FB7
:100A600098A3A9A3BAA38B8D9C8DAD8DBE8D9C013F
:100A7000AD01BC01CD0179D4DC01CB018BA39CA3DA
:100A8000ADA3BEA320E030E040E85FE36F8D78A126
:100A900089A19AA1CED488231CF481E08FA3ABC096
:100AA00020E03FEF4FE757E46BA17CA18DA19EA111
:100AB000CDD518160CF078C020E030E04AE754E4B9
:100AC0006B8D7C8D8D8D9E8DB8D4DC01CB0188A77C
:100AD00099A7AAA7BBA720E030E04AEF54E468A595
:100AE00079A58AA59BA5B6D5DC01CB018CA79DA7CE
:100AF000AEA7BFA720E030E040E85FE36CA57DA58E
:100B00008EA59FA596D488232CF481E090E099AB24
:100B100088AB3DC020E03FEF4FE757E46CA57DA5D3
:100B20008EA59FA593D518164CF520E030E040E245
:100B300051E468A579A58AA59BA58CD5DC01CB01DC
:100B4000BC01CD01E2D4DC01CB0199AB88AB0FC075
:100B500088EC90E09BAB8AAB8AA99BA90197F1F73F
:100B60009BAB8AAB88A999A9019799AB88AB88A957
:100B700099A9892B69F78BAD8FA33DC06CA57DA585
:100B80008EA59FA5C2D4DC01CB0199AB88AB88A907
:100B900099A99DAB8CAB8CA99DA90197F1F79DAB51
:100BA0008CAB8BAD8FA327C020E030E04FE753E440
:100BB0006F8D78A189A19AA149D51816A4F46BA1CB
:100BC0007CA18DA19EA1A1D4DC01CB019FAB8EABFA
:100BD0008EA99FA999AF88AF88AD99AD0197F1F71C
:100BE00099AF88AF0EC06F8D78A189A19AA18DD4DD
:100BF000DC01CB018FA38FA18AAF8AAD8A95F1F773
:100C00008AAF89819A8101969A8389838B818F5FCC
:100C10008B8321CE80E090E0EB960FB6F894DEBF98
:100C20000FBECDBFDF91CF911F910F9108951F92FD
:100C30000F9200905F000F9211242F933F934F93D8
:100C40005F936F937F938F939F93AF93BF93EF9334
:100C5000FF93CF93DF93CDB7DEB781E08093ED00B4
:100C60008091F000882319F086EC90E086D1DF9126
:100C7000CF91FF91EF91BF91AF919F918F917F9114
:100C80006F915F914F913F912F910F9000925F0074
:100C90000F901F9018951F920F9200905F000F9277
:100CA00011242F933F934F935F936F937F938F9371
:100CB0009F93AF93BF93EF93FF93CF93DF93CDB702
:100CC000DEB78091F000882319F082ED90E055D1D5
:100CD0008BE590E02BE530E0F90120812F77FC01D6
:100CE000208381E08093F100DF91CF91FF91EF911C
:100CF000BF91AF919F918F917F916F915F914F9134
:100D00003F912F910F9000925F000F901F901895C8
:100D10001F920F9200905F000F9211242F933F9328
:100D20004F935F938F939F93EF93FF93CF93DF93B3
:100D3000CDB7DEB784E290E0FC0120813181809163
:100D4000E200882F90E08217930778F484E290E025
:100D5000FC01208131818091E200882F90E0A9017F
:100D6000481B590BCA010597D8F484E290E0FC01B6
:100D7000208131818091E200882F90E02817390787
:100D8000C8F48091E200282F30E084E290E0FC017A
:100D900080819181A901481B590BCA01059750F028
:100DA00084E290E0FC01808191818093E20081E007
:100DB0008093EF00DF91CF91FF91EF919F918F9101
:100DC0005F914F913F912F910F9000925F000F9094
:100DD0001F9018951F920F9200905F000F921124A0
:100DE0008F93CF93DF93CDB7DEB7809115018F3FFF
:100DF00031F0809115018F5F8093150113C010921F
:100E00001501809116018F3F31F0809116018F5F9F
:100E10008093160107C010921601809117018F5F11
:100E200080931701DF91CF918F910F9000925F0017
:100E30000F901F901895CF93DF93CDB7DEB70000CA
:100E40008BE290E0FC0180818823D4F78CE290E073
:100E5000FC018081DF91CF910895CF93DF9300D083
:100E600000D000D0CDB7DEB79C838B837E836D83AB
:100E70001A8219821BC089819A8101969A8389837B
:100E800030D0282F8B819C81FC0120838B819C8119
:100E9000FC0180818A3029F48B819C81FC011082C5
:100EA0000CC08B819C8101969C838B8329813A8124
:100EB0008D819E8182179307F4F629813A818D8175
:100EC0009E818217930724F48B819C81FC01108200
:100ED00026960FB6F894DEBF0FBECDBFDF91CF913F
:100EE0000895CF93DF93CDB7DEB78BE290E0FC019E
:100EF000808188233CF48CE290E0FC018081882F83
:100F000090E002C08FEF9FEFDF91CF910895CF93D4
:100F1000DF93CDB7DEB780E490E0FC01108289E278
:100F200090E023E3FC0120838AE290E028E1FC01C9
:100F3000208380E490E026E8FC012083DF91CF91BC
:100F40000895CF93DF931F92CDB7DEB7898300005A
:100F50008BE290E0FC018081882F90E080729927DD
:100F6000892BB1F38CE290E02981FC01208380E0A1
:100F700090E00F90DF91CF910895CF93DF9300D051
:100F8000CDB7DEB79A8389830AC089819A81FC0133
:100F90008081D7DF89819A8101969A8389838981AB
:100FA0009A81FC018081882381F70F900F90DF9157
:100FB000CF910895CF93DF93CDB7DEB780E290E075
:100FC00020E2FC01208381E290E021E230E0F9019F
:100FD00020812360FC012083DF91CF910895CF937E
:100FE000DF9300D0CDB7DEB78A8386E590E0FC01C1
:100FF000108286E590E024EAFC012083000086E56B
:1010000090E0FC0180818823D4F781E290E0FC012C
:101010008081882F90E0887F9927089711F081E0E0
:1010200020C083E290E02A81FC01208386E590E0E5
:1010300024E8FC012083000086E590E0FC0180812B
:101040008823D4F781E290E0FC018081887F898346
:101050008981883129F08981803411F081E001C0D3
:1010600080E00F900F90DF91CF910895CF93DF93A1
:101070001F92CDB7DEB7898383E290E02981FC011E
:10108000208386E590E024E8FC012083000086E5CB
:1010900090E0FC0180818823D4F781E290E0FC019C
:1010A0008081882F90E0887F9927889711F081E0D0
:1010B00001C080E00F90DF91CF910895CF93DF932F
:1010C000CDB7DEB786E590E024ECFC01208300007C
:1010D00086E590E0FC0180818823D4F783E290E0EC
:1010E000FC018081DF91CF910895CF93DF93CDB73D
:1010F000DEB786E590E024E8FC012083000086E569
:1011000090E0FC0180818823D4F783E290E0FC0129
:101110008081DF91CF910895CF93DF93CDB7DEB774
:1011200027970FB6F894DEBF0FBECDBF8B837D83AC
:101130006C835F834E838B8152DF882311F081E0C3
:101140001EC01A82198212C02C813D8189819A8128
:10115000820F931FFC01808189DF882311F081E0D9
:101160000EC089819A8101969A83898329813A8167
:101170008E819F812817390738F3EAD080E02796BF
:101180000FB6F894DEBF0FBECDBFDF91CF910895AB
:101190000F931F93CF93DF93CDB7DEB727970FB68B
:1011A000F894DEBF0FBECDBF8B837D836C835F83DE
:1011B0004E838B81816013DF882311F081E029C089
:1011C0001A8219820FC02C813D8189819A818901FF
:1011D000080F191F73DFF801808389819A810196B6
:1011E0009A8389838E819F819C0121503109898155
:1011F0009A818217930738F38E819F8101972C8102
:101200003D818901080F191F70DFF8018083A0D08C
:1012100080E027960FB6F894DEBF0FBECDBFDF91FA
:10122000CF911F910F910895CF93DF93CDB7DEB784
:1012300028970FB6F894DEBF0FBECDBF8B836C83AB
:101240005E834D8338872F838B81C9DE882311F01D
:1012500081E020C08C810ADF1A82198212C02D81A0
:101260003E8189819A81820F931FFC018081FEDE7D
:10127000882311F081E00EC089819A8101969A83BA
:10128000898329813A818F8198852817390738F316
:101290005FD080E028960FB6F894DEBF0FBECDBFBA
:1012A000DF91CF9108950F931F93CF93DF93CDB725
:1012B000DEB728970FB6F894DEBF0FBECDBF8B8385
:1012C0006C835E834D8338872F838B8188DE8823F0
:1012D00011F081E032C08C81C9DE8B8181607FDEBC
:1012E000882311F081E029C01A8219820FC02D8154
:1012F0003E8189819A818901080F191FDFDEF8017B
:10130000808389819A8101969A8389838F819885C8
:101310009C012150310989819A818217930738F302
:101320008F81988501972D813E818901080F191FB2
:10133000DCDEF80180830CD080E028960FB6F894AC
:10134000DEBF0FBECDBFDF91CF911F910F910895EA
:10135000CF93DF93CDB7DEB786E590E024E9FC01BB
:101360002083DF91CF9108955058BB27AA270ED034
:1013700033C124D130F029D120F031F49F3F11F452
:101380001EF419C10EF4E095E7FB0FC1E92F35D12A
:1013900080F3BA17620773078407950718F071F492
:1013A0009EF54DC10EF4E0950B2EBA2FA02D0B012A
:1013B000B90190010C01CA01A0011124FF27591B9A
:1013C00099F0593F50F4503E68F11A16F040A22FA0
:1013D000232F342F4427585FF3CF46953795279511
:1013E000A795F0405395C9F77EF41F16BA0B620B10
:1013F000730B840BBAF09150A1F0FF0FBB1F661F57
:10140000771F881FC2F70EC0BA0F621F731F841F99
:1014100048F4879577956795B795F7959E3F08F0BF
:10142000B3CF9395880F08F09927EE0F979587957E
:10143000089597D008F481E008950CD0CDC0C5D0B0
:1014400040F0BCD030F021F45F3F19F0AEC0511134
:10145000F7C0B1C0D2D098F39923C9F35523B1F3A3
:10146000951B550BBB27AA2762177307840738F013
:101470009F5F5F4F220F331F441FAA1FA9F333D072
:101480000E2E3AF0E0E830D091505040E695001C26
:10149000CAF729D0FE2F27D0660F771F881FBB1FE2
:1014A000261737074807AB07B0E809F0BB0B802DBC
:1014B000BF01FF2793585F4F2AF09E3F510568F008
:1014C00074C0BEC05F3FECF3983EDCF38695779521
:1014D0006795B795F7959F5FC9F7880F911D96950A
:1014E000879597F90895E1E0660F771F881FBB1F66
:1014F000621773078407BA0720F0621B730B840B13
:10150000BA0BEE1F88F7E09508957FD088F09F57BB
:1015100090F0B92F9927B751A0F0D1F0660F771F3F
:10152000881F991F1AF0BA95C9F712C0B13081F01F
:1015300086D0B1E0089583C0672F782F8827B85FE1
:1015400039F0B93FCCF3869577956795B395D9F780
:101550003EF490958095709561957F4F8F4F9F4F8A
:101560000895990F0008550FAA0BE0E8FEEF161634
:101570001706E807F907C0F012161306E407F50787
:1015800098F0621B730B840B950B39F40A2661F0FB
:10159000232B242B252B21F408950A2609F4A1409E
:1015A000A6958FEF811D811D089597F99F6780E8AB
:1015B00070E060E008959FEF80EC089500240A94A5
:1015C0001616170618060906089500240A9412161E
:1015D0001306140605060895092E0394000C11F451
:1015E000882352F0BB0F40F4BF2B11F460FF04C0FE
:1015F0006F5F7F4F8F4F9F4F089557FD9058440F57
:10160000551F59F05F3F71F04795880F97FB991F61
:1016100061F09F3F79F0879508951216130614061E
:10162000551FF2CF4695F1DF08C0161617061806AB
:10163000991FF1CF86957105610508940895E89486
:10164000BB2766277727CB0197F908958ADF08F42F
:101650008FEF08950BD0C0CFB1DF28F0B6DF18F0C0
:10166000952309F0A2CFA7CF1124EACFC6DFA0F3BC
:10167000959FD1F3950F50E0551F629FF001729F27
:10168000BB27F00DB11D639FAA27F00DB11DAA1F46
:10169000649F6627B00DA11D661F829F2227B00D93
:1016A000A11D621F739FB00DA11D621F839FA00D1E
:1016B000611D221F749F3327A00D611D231F849F6E
:1016C000600D211D822F762F6A2F11249F575040C5
:1016D0008AF0E1F088234AF0EE0FFF1FBB1F661F60
:1016E000771F881F91505040A9F79E3F510570F019
:1016F0005CCFA6CF5F3FECF3983EDCF38695779501
:101700006795B795F795E7959F5FC1F7FE2B880F13
:10171000911D9695879597F90895A29FB001B39F63
:10172000C001A39F01D0B29F700D811D1124911D96
:1017300008958F929F92AF92BF92CF92DF92EF92D5
:10174000FF92CF93DF93EC01688179818A819B813D
:10175000611571058105910521F464E279ED8BE550
:1017600097E02DE133EF41E050E0F3D249015A0117
:101770009B01AC01A7EAB1E408D36B017C01ACEE9C
:10178000B4EFA50194010DD3DC01CB018C0D9D1D9F
:10179000AE1DBF1DB7FF03C00197A109B0488883E4
:1017A0009983AA83BB839F77DF91CF91FF90EF90BE
:1017B000DF90CF90BF90AF909F908F900895B9DF4A
:1017C000089580E690E0B5DF0895A0E0B0E0809352
:1017D000600090936100A0936200B093630008954D
:1017E000AEE0B0E0E5EFFBE0EEC20D891E8986E0D9
:1017F0008C831A8309838FEF9FE79E838D83AE01CD
:10180000475E5F4F6F89788DCE01019609D02F8199
:101810003885F801E20FF31F10822E96E4E0EFC244
:10182000ACE0B0E0E5E1FCE0C0C27C016B018A0104
:10183000FC0117821682838181FFB0C1CE0101961F
:101840004C01F7019381F60193FD859193FF8191FE
:101850006F01882309F49EC1853239F493FD859187
:1018600093FF81916F01853221F4B70190E0B1D1EE
:10187000E8CF512C312C20E02032A0F48B3269F0DB
:1018800030F4803259F0833269F420612CC08D32FB
:1018900039F0803339F4216026C02260246023C0EF
:1018A000286021C027FD27C030ED380F3A3078F48A
:1018B00026FF06C0FAE05F9E300D1124532E13C0A0
:1018C0008AE0389E300D1124332E20620CC08E32F7
:1018D00021F426FD5FC1206406C08C3611F4206817
:1018E00002C0883641F4F60193FD859193FF819102
:1018F0006F018111C1CF982F9F7D9554933028F4AB
:101900000C5F1F4FFFE3F9830DC0833631F083373F
:1019100071F0833509F057C021C0F80180818983B7
:101920000E5F1F4F44244394512C540114C03801BE
:10193000F2E06F0E711CF801A080B18026FF03C099
:10194000652D70E002C06FEF7FEFC5012C8736D1A7
:101950002C0183012C852F77222E16C03801F2E04E
:101960006F0E711CF801A080B18026FF03C0652DA9
:1019700070E002C06FEF7FEFC5012C8714D12C01FE
:101980002C852068222E830123FC19C0832D90E032
:1019900048165906A0F4B70180E290E01AD13A94B3
:1019A000F5CFF50127FC859127FE81915F01B701F5
:1019B00090E00FD131103A94F1E04F1A51084114E0
:1019C000510479F7DEC0843611F0893631F5F8011B
:1019D00027FF07C060817181828193810C5F1F4F57
:1019E00008C060817181072E000C880B990B0E5F77
:1019F0001F4F2F76722E97FF09C090958095709596
:101A000061957F4F8F4F9F4F2068722E2AE030E004
:101A1000A40117D1A82EA81843C0853729F42F7E1A
:101A2000B22E2AE030E025C0F22FF97FBF2E8F368C
:101A3000C1F018F4883579F0ADC0803719F08837D7
:101A400021F0A8C02F2F2061B22EB4FE0DC08B2D27
:101A50008460B82E09C024FF0AC09F2F9660B92E5B
:101A600006C028E030E005C020E130E002C020E1FF
:101A700032E0F801B7FE07C06081718182819381F5
:101A80000C5F1F4F06C06081718180E090E00E5FA7
:101A90001F4FA401D6D0A82EA818FB2DFF777F2EAC
:101AA00076FE0BC0372D3E7FA51450F474FE0AC09D
:101AB00072FC08C0372D3E7E05C0BA2C372D03C0FE
:101AC000BA2C01C0B52C34FF0DC0FE01EA0DF11D8A
:101AD0008081803311F4397E09C032FF06C0B3948F
:101AE000B39404C0832F867809F0B39433FD12C0F9
:101AF00030FF06C05A2CB31418F4530C5B18B32CE7
:101B0000B31460F4B70180E290E03C8762D0B394F4
:101B10003C85F6CFB31410F43B1801C0312C34FFD0
:101B200011C0B70180E390E03C8753D03C8532FF81
:101B300016C031FD03C088E790E002C088E590E060
:101B4000B7010CC0832F867851F031FF02C08BE2C1
:101B500001C080E237FD8DE2B70190E03AD0A514D4
:101B600030F4B70180E390E034D05A94F8CFAA94CF
:101B7000F401EA0DF11D8081B70190E02AD0A11097
:101B8000F6CF332009F45DCEB70180E290E021D09A
:101B90003A94F7CFF7018681978102C08FEF9FEFCC
:101BA0002C96E2E11EC1FC010590615070400110CD
:101BB000D8F7809590958E0F9F1F0895FC01615076
:101BC000704001900110D8F7809590958E0F9F1F5F
:101BD00008950F931F93CF93DF93FB01238121FD82
:101BE00003C08FEF9FEF28C022FF16C046815781A8
:101BF000248135814217530744F4A081B1819D01AE
:101C00002F5F3F4F318320838C93268137812F5F55
:101C10003F4F3783268310C0EB01092F182F008414
:101C2000F185E02D0995892BE1F68E819F81019642
:101C30009F838E83812F902FDF91CF911F910F91E2
:101C40000895FA01AA27283051F1203181F1E89452
:101C50006F936E7F6E5F7F4F8F4F9F4FAF4FB1E09F
:101C60003ED0B4E03CD0670F781F891F9A1FA11D9A
:101C7000680F791F8A1F911DA11D6A0F711D811D9B
:101C8000911DA11D20D009F468943F912AE0269F60
:101C900011243019305D3193DEF6CF010895462FBF
:101CA0004770405D4193B3E00FD0C9F7F6CF462FA0
:101CB0004F70405D4A3318F0495D31FD4052419309
:101CC00002D0A9F7EACFB4E0A695979587957795C6
:101CD0006795BA95C9F700976105710508959B014D
:101CE000AC010A2E06945795479537952795BA95D6
:101CF000C9F7620F731F841F951FA01D0895A8E1E7
:101D0000B0E042E050E006C00196272F12D010C08C
:101D1000DC01CB01FC01E199FECF06C0FFBBEEBBAD
:101D2000E09A31960DB20D9241505040B8F70895A7
:101D3000262FE199FECF9FBB8EBBE09A01970DB293
:101D4000021631F02DBB0FB6F894E29AE19A0FBE5D
:101D50000895052E97FB16F400940FD057FD05D07B
:101D60005BD007FC02D046F408C0509540953095F2
:101D700021953F4F4F4F5F4F0895909580957095F7
:101D800061957F4F8F4F9F4F0895C7DCA59F900DA2
:101D9000B49F900DA49F800D911D11240895B7FF4D
:101DA000F4CFF3DF821B930B08952F923F924F9253
:101DB0005F926F927F928F929F92AF92BF92CF92DB
:101DC000DF92EF92FF920F931F93CF93DF93CDB7E4
:101DD000DEB7CA1BDB0B0FB6F894DEBF0FBECDBF5C
:101DE00009942A88398848885F846E847D848C842D
:101DF0009B84AA84B984C884DF80EE80FD800C8136
:101E00001B81AA81B981CE0FD11D0FB6F894DEBF18
:101E10000FBECDBFED010895A1E21A2EAA1BBB1B78
:101E2000FD010DC0AA1FBB1FEE1FFF1FA217B307A6
:101E3000E407F50720F0A21BB30BE40BF50B661FBC
:101E4000771F881F991F1A9469F760957095809580
:101E500090959B01AC01BD01CF010895F894FFCF8F
:101E60000100000053746172740A00536875746451
:101E70006F776E21210A00556E646572766F6C74FF
:101E80006167652E2056626174203D2025690A0035
:101E90004C6F6767696E67204163746976650A00F5
:101EA000302C25692C25692C25692C25690A00759B
:101EB0006E646572766F6C746167652064657465C5
:101EC000637465640A00496E74657272757074217A
:101ED0000A00427574746F6E207075736865640AC9
:021EE000000000
:00000001FF
