:1000000012C02CC02BC02AC029C028C027C026C0BF
:1000100025C024C023C022C021C020C054C21EC09D
:100020001DC01CC01BC011241FBECFE5D4E0DEBF25
:10003000CDBF10E0A0E6B0E0ECEAF0E102C0059030
:100040000D92A836B107D9F720E0A8E6B0E001C0CC
:100050001D92AD38B207E1F7D3D026C8D1CFCF93E8
:10006000DF93CDB7DEB780E490E0FC01108289E237
:1000700090E023E3FC0120838AE290E028E1FC0188
:10008000208380E490E026E8FC012083DF91CF917B
:100090000895CF93DF931F92CDB7DEB78983000019
:1000A0008BE290E0FC018081882F90E0807299279C
:1000B000892BB1F38CE290E02981FC01208380E060
:1000C00090E00F90DF91CF910895CF93DF9300D010
:1000D000CDB7DEB79A8389830AC089819A81FC01F2
:1000E0008081D7DF89819A8101969A83898389816A
:1000F0009A81FC018081882381F70F900F90DF9116
:10010000CF910895CF93DF93CDB7DEB787E390E02B
:100110002EE0FC0120838FE490E021EAFC012083A3
:100120008EE490E02CE0FC01208385E490E02EE654
:10013000FC0120838AE490E0FC011182108288E4B3
:1001400090E0FC011182108283E490E0FC011082B7
:10015000DF91CF910895CF93DF9300D01F92CDB759
:10016000DEB78B8319821A82809168008C3F19F464
:1001700081E080936900909168008B81981711F459
:100180001092690080916900882349F48091680089
:100190008983809168008F5F8093680008C0809198
:1001A00068008983809168008150809368004DD4F5
:1001B00083708A8399818A81890F898389810F90CD
:1001C0000F900F90DF91CF910895CF93DF93CDB72C
:1001D000DEB787E290E020E4FC01208386E290E035
:1001E0002CEAFC012083789486E290E026E230E05D
:1001F000F90120812064FC012083DF91CF910895D3
:10020000CF93DF93CDB7DEB7A7970FB6F894DEBFD5
:100210000FBECDBF24DF76DFD8DF1D821E8280E0D7
:1002200090E0AAE7B4E489839A83AB83BC8380918E
:100230006C00882309F44EC084E290E0FC018081C8
:100240009181292F2F938F9384E690E0892F8F93AC
:1002500084E690E08F938DE690E0892F8F938DE672
:1002600090E08F9301D40F900F900F900F900F900C
:100270000F908DE690E029DF10926C0084E290E010
:10028000FC0180819181CC01A0E0B0E0BC01CD01F6
:100290007BD2DC01CB0120E030E44CE156E4BC0130
:1002A000CD0128D3DC01CB0120E030EC4FE754E452
:1002B000BC01CD01D5D1DC01CB0120E030E04AE723
:1002C00054E4BC01CD0164D1DC01CB0189839A8364
:1002D000AB83BC838FE73FDF8D838AE490E02D8181
:1002E000222F30E0FC013183208388E490E02E81CE
:1002F000222F30E0FC013183208389819A81AB81F8
:10030000BC818F839887A987BA872BEA3AEA4AE2A9
:1003100050E46F81788589859A85ECD2DC01CB0128
:100320008B879C87AD87BE878F819885A985BA8585
:100330009C01AD01BC01CD012BD1DC01CB018F872C
:10034000988BA98BBA8B20E030E040E85FE36B85A7
:100350007C858D859E8580D188231CF481E08B8BE4
:10036000ABC020E03FEF4FE757E46F85788989897C
:100370009A89BCD218160CF078C020E030E04AE729
:1003800054E46F81788589859A856AD1DC01CB0137
:100390008C8B9D8BAE8BBF8B20E030E04AEF54E41A
:1003A0006C897D898E899F89A5D2DC01CB01888FDC
:1003B000998FAA8FBB8F20E030E040E85FE3688D23
:1003C000798D8A8D9B8D48D188232CF481E090E033
:1003D0009D8F8C8F3DC020E03FEF4FE757E4688D45
:1003E000798D8A8D9B8D82D218164CF520E030E0F5
:1003F00040E251E46C897D898E899F897BD2DC0142
:10040000CB01BC01CD0194D1DC01CB019D8F8C8F40
:100410000FC088EC90E09F8F8E8F8E8D9F8D0197FF
:10042000F1F79F8F8E8F8C8D9D8D01979D8F8C8F77
:100430008C8D9D8D892B69F78FA18B8B3DC0688D2D
:10044000798D8A8D9B8D74D1DC01CB019D8F8C8F32
:100450008C8D9D8D99A388A388A199A10197F1F70F
:1004600099A388A38FA18B8B27C020E030E04FE7B2
:1004700053E46B857C858D859E8538D21816A4F44F
:100480006F85788989899A8953D1DC01CB019BA337
:100490008AA38AA19BA19DA38CA38CA19DA1019756
:1004A000F1F79DA38CA3C3CE6B857C858D859E853E
:1004B0003FD1DC01CB018B8B8B898EA38EA18A95DA
:1004C000F1F78EA3B4CE1F920F9200905F000F92AF
:1004D00011242F933F934F935F938F939F93EF93A9
:1004E000FF93CF93DF93CDB7DEB784E290E0FC01BA
:1004F0002081318180916A0090916B00821793076F
:1005000078F484E290E0FC012081318180916A00DE
:1005100090916B00A901481B590BCA010597D8F4AB
:1005200084E290E0FC012081318180916A00909109
:100530006B0028173907D8F420916A0030916B00BE
:1005400084E290E0FC0180819181A901481B590B54
:10055000CA01059760F084E290E0FC0180819181FE
:1005600090936B0080936A0081E080936C00DF9130
:10057000CF91FF91EF919F918F915F914F913F911B
:100580002F910F9000925F000F901F901895505878
:10059000BB27AA270ED070C161D130F066D120F000
:1005A00031F49F3F11F41EF456C10EF4E095E7FBC1
:1005B0004CC1E92F72D180F3BA1762077307840721
:1005C000950718F071F49EF58AC10EF4E0950B2E94
:1005D000BA2FA02D0B01B90190010C01CA01A00195
:1005E0001124FF27591B99F0593F50F4503E68F1F0
:1005F0001A16F040A22F232F342F4427585FF3CF31
:10060000469537952795A795F0405395C9F77EF401
:100610001F16BA0B620B730B840BBAF09150A1F04A
:10062000FF0FBB1F661F771F881FC2F70EC0BA0FD0
:10063000621F731F841F48F4879577956795B79558
:10064000F7959E3F08F0B3CF9395880F08F0992750
:10065000EE0F979587950895D4D008F481E008951A
:100660000CD00AC102D140F0F9D030F021F45F3F44
:1006700019F0EBC0511134C1EEC00FD198F399239A
:10068000C9F35523B1F3951B550BBB27AA27621756
:100690007307840738F09F5F5F4F220F331F441F9B
:1006A000AA1FA9F333D00E2E3AF0E0E830D09150D3
:1006B0005040E695001CCAF729D0FE2F27D0660FC0
:1006C000771F881FBB1F261737074807AB07B0E8FF
:1006D00009F0BB0B802DBF01FF2793585F4F2AF015
:1006E0009E3F510568F0B1C0FBC05F3FECF3983E00
:1006F000DCF3869577956795B795F7959F5FC9F772
:10070000880F911D9695879597F90895E1E0660FFA
:10071000771F881FBB1F621773078407BA0720F073
:10072000621B730B840BBA0BEE1F88F7E0950895DC
:10073000BCD088F09F5790F0B92F9927B751A0F0FF
:10074000D1F0660F771F881F991F1AF0BA95C9F765
:1007500012C0B13081F0C3D0B1E00895C0C0672F9E
:10076000782F8827B85F39F0B93FCCF38695779515
:100770006795B395D9F73EF49095809570956195FE
:100780007F4F8F4F9F4F0895E89409C097FB3EF429
:1007900090958095709561957F4F8F4F9F4F9923CE
:1007A000A9F0F92F96E9BB279395F695879577954C
:1007B0006795B795F111F8CFFAF4BB0F11F460FF0C
:1007C0001BC06F5F7F4F8F4F9F4F16C0882311F064
:1007D00096E911C0772321F09EE8872F762F05C078
:1007E000662371F096E8862F70E060E02AF09A9513
:1007F000660F771F881FDAF7880F9695879597F908
:100800000895990F0008550FAA0BE0E8FEEF1616A1
:100810001706E807F907C0F012161306E407F507F4
:1008200098F0621B730B840B950B39F40A2661F068
:10083000232B242B252B21F408950A2609F4A1400B
:10084000A6958FEF811D811D089597F99F6780E818
:1008500070E060E008959FEF80EC089500240A9412
:100860001616170618060906089500240A9412168B
:100870001306140605060895092E0394000C11F4BE
:10088000882352F0BB0F40F4BF2B11F460FF04C06B
:100890006F5F7F4F8F4F9F4F089557FD9058440FC4
:1008A000551F59F05F3F71F04795880F97FB991FCF
:1008B00061F09F3F79F0879508951216130614068C
:1008C000551FF2CF4695F1DF08C016161706180619
:1008D000991FF1CF86957105610508940895E894F4
:1008E000BB2766277727CB0197F908958ADF08F49D
:1008F0008FEF08950BD0C0CFB1DF28F0B6DF18F02E
:10090000952309F0A2CFA7CF1124EACFC6DFA0F329
:10091000959FD1F3950F50E0551F629FF001729F94
:10092000BB27F00DB11D639FAA27F00DB11DAA1FB3
:10093000649F6627B00DA11D661F829F2227B00D00
:10094000A11D621F739FB00DA11D621F839FA00D8B
:10095000611D221F749F3327A00D611D231F849FDB
:10096000600D211D822F762F6A2F11249F57504032
:100970008AF0E1F088234AF0EE0FFF1FBB1F661FCD
:10098000771F881F91505040A9F79E3F510570F086
:100990005CCFA6CF5F3FECF3983EDCF3869577956E
:1009A0006795B795F795E7959F5FC1F7FE2B880F81
:1009B000911D9695879597F908958F929F92AF9282
:1009C000BF92CF92DF92EF92FF92CF93DF93EC0131
:1009D000688179818A819B81611571058105910505
:1009E00021F464E279ED8BE597E02DE133EF41E00E
:1009F00050E0C9D249015A019B01AC01A7EAB1E418
:100A0000DED26B017C01ACEEB4EFA5019401E3D220
:100A1000DC01CB018C0D9D1DAE1DBF1DB7FF03C0BA
:100A20000197A109B04888839983AA83BB839F77E4
:100A3000DF91CF91FF90EF90DF90CF90BF90AF907C
:100A40009F908F900895B9DF089580E690E0B5DF1C
:100A50000895A0E0B0E08093600090936100A093BF
:100A60006200B09363000895AEE0B0E0E9E3F5E022
:100A7000C4C20D891E8986E08C831A8309838FEF97
:100A80009FE79E838D83AE01475E5F4F6F89788DB0
:100A9000CE01019609D02F813885F801E20FF31FAE
:100AA00010822E96E4E0C5C2ACE0B0E0E9E5F5E0E6
:100AB00096C27C016B018A01FC0117821682838138
:100AC00081FFB0C1CE0101964C01F7019381F6017F
:100AD00093FD859193FF81916F01882309F49EC155
:100AE000853239F493FD859193FF81916F018532B1
:100AF00021F4B70190E0B1D1E8CF512C312C20E0A6
:100B00002032A0F48B3269F030F4803259F0833215
:100B100069F420612CC08D3239F0803339F42160C2
:100B200026C02260246023C0286021C027FD27C082
:100B300030ED380F3A3078F426FF06C0FAE05F9EB9
:100B4000300D1124532E13C08AE0389E300D11242D
:100B5000332E20620CC08E3221F426FD5FC120644A
:100B600006C08C3611F4206802C0883641F4F601C4
:100B700093FD859193FF81916F018111C1CF982FD2
:100B80009F7D9554933028F40C5F1F4FFFE3F9834A
:100B90000DC0833631F0833771F0833509F057C0CB
:100BA00021C0F801808189830E5F1F4F4424439444
:100BB000512C540114C03801F2E06F0E711CF80181
:100BC000A080B18026FF03C0652D70E002C06FEFEA
:100BD0007FEFC5012C8736D12C0183012C852F771F
:100BE000222E16C03801F2E06F0E711CF801A080B1
:100BF000B18026FF03C0652D70E002C06FEF7FEF6C
:100C0000C5012C8714D12C012C852068222E83014C
:100C100023FC19C0832D90E048165906A0F4B701B3
:100C200080E290E01AD13A94F5CFF50127FC859146
:100C300027FE81915F01B70190E00FD131103A9406
:100C4000F1E04F1A51084114510479F7DEC084369F
:100C500011F0893631F5F80127FF07C060817181F5
:100C6000828193810C5F1F4F08C060817181072EC4
:100C7000000C880B990B0E5F1F4F2F76722E97FF7B
:100C800009C090958095709561957F4F8F4F9F4FCC
:100C90002068722E2AE030E0A40117D1A82EA818EF
:100CA00043C0853729F42F7EB22E2AE030E025C0DC
:100CB000F22FF97FBF2E8F36C1F018F4883579F006
:100CC000ADC0803719F0883721F0A8C02F2F2061E0
:100CD000B22EB4FE0DC08B2D8460B82E09C024FF47
:100CE0000AC09F2F9660B92E06C028E030E005C0EC
:100CF00020E130E002C020E132E0F801B7FE07C099
:100D000060817181828193810C5F1F4F06C0608179
:100D1000718180E090E00E5F1F4FA401D6D0A82E15
:100D2000A818FB2DFF777F2E76FE0BC0372D3E7F58
:100D3000A51450F474FE0AC072FC08C0372D3E7E24
:100D400005C0BA2C372D03C0BA2C01C0B52C34FF16
:100D50000DC0FE01EA0DF11D8081803311F4397E52
:100D600009C032FF06C0B394B39404C0832F8678C1
:100D700009F0B39433FD12C030FF06C05A2CB314EF
:100D800018F4530C5B18B32CB31460F4B70180E271
:100D900090E03C8762D0B3943C85F6CFB31410F456
:100DA0003B1801C0312C34FF11C0B70180E390E043
:100DB0003C8753D03C8532FF16C031FD03C088E725
:100DC00090E002C088E590E0B7010CC0832F8678E0
:100DD00051F031FF02C08BE201C080E237FD8DE2AD
:100DE000B70190E03AD0A51430F4B70180E390E069
:100DF00034D05A94F8CFAA94F401EA0DF11D808101
:100E0000B70190E02AD0A110F6CF332009F45DCECF
:100E1000B70180E290E021D03A94F7CFF7018681C4
:100E2000978102C08FEF9FEF2C96E2E1F4C0FC01A6
:100E30000590615070400110D8F7809590958E0F05
:100E40009F1F0895FC016150704001900110D8F778
:100E5000809590958E0F9F1F08950F931F93CF93AA
:100E6000DF93FB01238121FD03C08FEF9FEF28C09B
:100E700022FF16C0468157812481358142175307CE
:100E800044F4A081B1819D012F5F3F4F31832083C6
:100E90008C93268137812F5F3F4F3783268310C085
:100EA000EB01092F182F0084F185E02D0995892B7E
:100EB000E1F68E819F8101969F838E83812F902FF3
:100EC000DF91CF911F910F910895FA01AA27283041
:100ED00051F1203181F1E8946F936E7F6E5F7F4F07
:100EE0008F4F9F4FAF4FB1E03ED0B4E03CD0670F83
:100EF000781F891F9A1FA11D680F791F8A1F911DD6
:100F0000A11D6A0F711D811D911DA11D20D009F425
:100F100068943F912AE0269F11243019305D319367
:100F2000DEF6CF010895462F4770405D4193B3E050
:100F30000FD0C9F7F6CF462F4F70405D4A3318F0F7
:100F4000495D31FD4052419302D0A9F7EACFB4E0A8
:100F5000A6959795879577956795BA95C9F7009760
:100F60006105710508959B01AC010A2E0694579501
:100F7000479537952795BA95C9F7620F731F841F58
:100F8000951FA01D0895052E97FB16F400940FD011
:100F900057FD05D05BD007FC02D046F408C0509541
:100FA0004095309521953F4F4F4F5F4F0895909555
:100FB0008095709561957F4F8F4F9F4F089568D0B2
:100FC000A59F900DB49F900DA49F800D911D11249D
:100FD0000895B7FFF4CFF3DF821B930B08952F9290
:100FE0003F924F925F926F927F928F929F92AF92B9
:100FF000BF92CF92DF92EF92FF920F931F93CF9306
:10100000DF93CDB7DEB7CA1BDB0B0FB6F894DEBF9C
:101010000FBECDBF09942A88398848885F846E84C2
:101020007D848C849B84AA84B984C884DF80EE800C
:10103000FD800C811B81AA81B981CE0FD11D0FB615
:10104000F894DEBF0FBECDBFED010895A1E21A2EC8
:10105000AA1BBB1BFD010DC0AA1FBB1FEE1FFF1F5C
:10106000A217B307E407F50720F0A21BB30BE40BAC
:10107000F50B661F771F881F991F1A9469F76095F3
:101080007095809590959B01AC01BD01CF010895AD
:10109000A29FB001B39FC001A39F01D0B29F700D6A
:0C10A000811D1124911D0895F894FFCFCC
:0810AC000100000025690A00A3
:00000001FF
