:1000000012C019C018C017C016C015C014C013C044
:1000100012C011C010C00FC00EC00DC00CC00BC06C
:100020000AC009C008C011241FBECFE5D4E0DEBF5E
:10003000CDBF02D029C0E4CFCF93DF931F92CDB7BD
:10004000DEB719828981882F90E02981222F30E044
:10005000BC01C90104D089818F5F8983F3CF0196E8
:10006000272F02D000C0262FE199FECF9FBB8EBB69
:10007000E09A01970DB2021631F02DBB0FB6F8943D
:0C008000E29AE19A0FBE0895F894FFCFB9
:00000001FF
