:1000000012C07CC6B0C62AC04FC728C027C026C0B1
:1000100025C024C023C022C021C020C0E2C61EC00B
:100020001DC01CC01BC011241FBECFE5D4E0DEBF25
:10003000CDBF10E0A0E6B0E0ECE8FFE102C0059023
:100040000D92A83BB107D9F720E0A8EBB0E001C0C2
:100050001D92A03FB207E1F734D396CFD1CFCF9313
:10006000DF9300D000D0CDB7DEB78C831A8219821F
:100070001B828C8123D880E068D88C8181601ED857
:100080008CD8882F90E0982F88279A8389839CD8D2
:10009000882F90E029813A81822B932B9A83898340
:1000A000C6D989819A8195958795959587959595D6
:1000B000879595958795959587950F900F900F90BB
:1000C0000F90DF91CF910895CF93DF93CDB7DEB737
:1000D00080E9F4D781E039D881E037D8A8D9000089
:1000E000DF91CF910895CF93DF93CDB7DEB780E94D
:1000F000E5D781E02AD880E028D899D90000DF919F
:10010000CF910895CF93DF93CDB7DEB785E590E02B
:1001100025E530E0F90120812A60FC0120838BE590
:1001200090E02BE530E0F9012081206CFC01208378
:100130000000DF91CF910895CF93DF93CDB7DEB765
:1001400085E490E025E430E0F90120812860FC019D
:10015000208385E490E025E430E0F90120812F7BC5
:10016000FC01208383E490E02FEFFC01208385E4F1
:1001700090E025E430E0F90120812760FC01208334
:1001800089E590E029E530E0F90120812064FC0157
:1001900020830000DF91CF910895CF93DF9300D0AB
:1001A00000D000D0CDB7DEB79E838D8319821A822E
:1001B0001C821B828D819E81892F992789838D8145
:1001C0008A8380E97BD781E0C0D780E977D788E14F
:1001D000BCD72DD980E972D783E0B7D78981B5D74D
:1001E0008A81B3D781E96AD7D8D7882F90E0982F32
:1001F00088279C838B83E8D7882F90E02B813C81D4
:10020000822B932B9C838B8312D9000026960FB6EA
:10021000F894DEBF0FBECDBFDF91CF910895CF938D
:10022000DF931F92CDB7DEB7198287E290E020E41A
:10023000FC0120838981882331F086E290E02CEA5A
:10024000FC01208305C086E290E02EE8FC012083BB
:1002500000000F90DF91CF910895CF93DF931F920D
:10026000CDB7DEB7898387E290E0298123702064CF
:10027000FC01208300000F90DF91CF910895CF9370
:10028000DF93CDB7DEB78091BA00E7DF1092C700E9
:1002900086E290E026E230E0F90120812064FC0152
:1002A000208300008091C7008823E1F38091BA0089
:1002B000882F90E081309105D1F08230910519F0BE
:1002C000892B59F030C084E290E0FC01808191815B
:1002D0009093C0008093BF0026C084E290E0FC01B0
:1002E000808191819093BC008093BB001CC084E20C
:1002F00090E0FC01808191819695879596958795F0
:1003000099279093BE008093BD008091BD0090918D
:10031000BE008D3F910530F08CEF90E09093BE00D1
:100320008093BD0000008091BA008F5F8093BA0077
:100330008091BA00833010F01092BA000000DF9173
:10034000CF910895CF93DF93CDB7DEB78FE490E0E0
:1003500021EAFC0120838EE490E02CE0FC01208364
:100360008AE490E0FC011182108288E490E0FC01B4
:10037000118210820000DF91CF910895CF93DF9317
:10038000CDB7DEB730D684E690E064D681D680E97A
:1003900066DE45DFB7DE82E593E0FFDECDDED2DF4D
:1003A000789487E390E027E330E0F901208127602B
:1003B000FC01208381E390E021E330E0F90120811A
:1003C000206FFC01208382E390E022E330E0F9011A
:1003D00020812F70FC01208382E390E022E330E053
:1003E000F90120812C60FC01208388E390E028E360
:1003F00030E0F90120812B7FFC0120838FEF91E019
:1004000014DD982F892F880F890F8093B900000081
:10041000DF91CF910895CF93DF93CDB7DEB78BE611
:1004200090E018D682E08093CA008FE490E02FE439
:1004300030E0F90120812F77FC0120838AE490E0ED
:10044000FC011182108288E490E0FC01118210828C
:1004500087E390E027E330E0F90120812D7FFC0164
:10046000208388E390E028E330E0F90120812E7FAB
:10047000FC01208385E590E025E530E0F90120814D
:100480002F782062FC01208385E590E025E530E0AF
:10049000F90120812068FC012083889585E590E0A2
:1004A00025E530E0F90120812F77FC012083000051
:1004B000DF91CF910895CF93DF9300D000D01F92AA
:1004C000CDB7DEB78D838D8189838091ED008A83DE
:1004D0008091EE008B838091EF008C838981882F3F
:1004E00090E02091B900222F30E0BC01C901A2DCCC
:1004F0008A81282F30E08091B900882F90E0019602
:10050000B90198DC8B81282F30E08091B900882FC9
:1005100090E00296B9018EDC8C81282F30E080912A
:10052000B900882F90E00396B90184DC8091B9006E
:10053000882F90E00196BC018FEF91E07BDC0000FA
:100540000F900F900F900F900F90DF91CF91089523
:10055000CF93DF93CDB7DEB78091BF009091C000FD
:100560008D3B924050F082E390E022E330E0F901CD
:100570002081206FFC01208346C08091BF009091B4
:10058000C0008935924098F082E390E022E330E0A9
:10059000F9012081206EFC01208382E390E022E3B8
:1005A00030E0F90120812F7EFC0120832CC0809156
:1005B000BF009091C000853F914098F082E390E0A9
:1005C00022E330E0F9012081206CFC01208382E3EA
:1005D00090E022E330E0F90120812F7CFC012083B0
:1005E00012C082E390E022E330E0F901208120682C
:1005F000FC01208382E390E022E330E0F9012081D6
:100600002F78FC0120838091C500882351F088E376
:1006100090E028E330E0F90120812460FC01208390
:1006200009C088E390E028E330E0F90120812B7FC6
:10063000FC0120830000DF91CF910895CF93DF93D9
:1006400000D0CDB7DEB719821A828091CB00282F57
:1006500030E08091BD009091BE004FEF50E0BA01B4
:10066000681B790BCB018217930710F01092CC0016
:100670008091CB008C3F19F481E08093CC00809175
:10068000CC00882349F48091CB0089838091CB00F2
:100690008F5F8093CB0008C08091CB0089838091CD
:1006A000CB0081508093CB0010D983708A839981CD
:1006B0008A81890F898389810F900F90DF91CF9173
:1006C0000895CF93DF93CDB7DEB7EB970FB6F894CD
:1006D000DEBF0FBECDBF52DE84E690E0BBD41A82EF
:1006E00019821B821C821D8280E090E0A0E8BFE39B
:1006F00088879987AA87BB8781E08E8382E0ADDDFA
:100700001F8216C0BCDD00008091C7008823E1F382
:1007100084E290E0FC0180819181823C914028F448
:100720008D818F5F8D831092C7008F818F5F8F8344
:100730008F81883038F38D81873020F181E080937C
:10074000C60084E290E0FC0180819181292F2F93E3
:100750008F9381E790E0892F8F9381E790E08F93CB
:100760008DEC90E0892F8F938DEC90E08F93BCD827
:100770000F900F900F900F900F900F908DEC90E0D6
:1007800069D449DE1C8680E390E0FC01808188709A
:100790008C878DEC90E05ED481E08093C80082E885
:1007A00090E058D482E390E022E330E0F901208128
:1007B000206FFC01208380E090E0A6E9B3E48A8BFF
:1007C0009B8BAC8BBD8B20E030E04AEF54E46A8910
:1007D0007B898C899D89AED7DC01CB018E8B9F8B69
:1007E000A88FB98F20E030E040E85FE36E897F8911
:1007F000888D998D8ED688232CF481E090E09B8F94
:100800008A8F3BC020E03FEF4FE757E46E897F8936
:10081000888D998D8BD718163CF520E030E040E2AA
:1008200051E46A897B898C899D8984D7DC01CB015D
:10083000BC01CD01DAD6DC01CB019B8F8A8F0FC0C2
:1008400088EC90E09D8F8C8F8C8D9D8D0197F1F7BA
:100850009D8F8C8F8A8D9B8D01979B8F8A8F8A8D20
:100860009B8D892B69F713C06E897F89888D998D3F
:10087000BCD6DC01CB019B8F8A8F8A8D9B8D9F8F8D
:100880008E8F8E8D9F8D0197F1F79F8F8E8F82E3D4
:1008900090E022E330E0F90120812F70FC012083F9
:1008A00088E390E028E330E0F90120812160FC0139
:1008B000208349815A81CA01929582958F70892738
:1008C0009F7089279C01A7E4B3E0ABD796958795E5
:1008D000969587959695879560E177E2869F90013A
:1008E000879F300D969F300D1124CA01821B930BF8
:1008F000892B09F097C080E9B2DB9093C200809306
:10090000C10082E9ACDB9093C4008093C300809166
:10091000C8008823E9F1E091BD00F091BE0060912C
:10092000BB007091BC004091BF005091C00020916D
:10093000C3003091C4008091C1009091C200AF2FDC
:10094000AF93EF93E72FEF936F93652F6F934F93D1
:10095000432F4F932F93292F2F938F938BE890E062
:10096000892F8F938BE890E08F938DEC90E0892F07
:100970008F938DEC90E08F93B7D78DB79EB70E967F
:100980000FB6F894DEBF0FBECDBF8DEC90E062D302
:100990008091C1009091C2008335934050F08C81CA
:1009A000873020F080E087DD36DD9DC18C818F5F50
:1009B0008C831A8219828091BF009091C000823C82
:1009C000914050F58091BF009091C000292F2F9346
:1009D0008F938BE990E0892F8F938BE990E08F9331
:1009E0008DEC90E0892F8F938DEC90E08F937CD7E6
:1009F0000F900F900F900F900F900F908DEC90E054
:100A000029D38D81843020F081E055DD04DD6BC178
:100A10008D818F5F8D8306C08D81882319F08D8134
:100A200081508D832CDC9B818E81981761F506DEC9
:100A3000898B8AE490E02989222F30E0FC01318300
:100A4000208388E490E02989222F30E0FC01318363
:100A500020832091BB003091BC00C901880F991FF1
:100A6000880F991FAC01420F531F8091BD009091D8
:100A7000BE009C012F5F3F4FCA01B901BED6CB011A
:100A8000885F8E831B828091C900813009F041C04C
:100A900049815A81CA0196958795969587959C01BB
:100AA000ABE7B4E1BED69695879564E6689F900162
:100AB000699F300D1124CA01821B930B892B49F5C4
:100AC00080E390E0FC018081882F90E08870992776
:100AD000892BF1F082E390E022E330E0F9012081FC
:100AE0002F70FC01208388E390E028E330E0F901D7
:100AF00020812B7FFC0120831092C9008BE590E0C0
:100B00002BE530E0F90120812068FC01208301C041
:100B10001FDD80E090E0A8ECB1E48D879E87AF8771
:100B2000B88B2BEA3AEA4AE250E46D857E858F85E0
:100B3000988900D6DC01CB0188A399A3AAA3BBA303
:100B40008D859E85AF85B8899C01AD01BC01CD0125
:100B50007CD4DC01CB018CA39DA3AEA3BFA320E07A
:100B600030E040E85FE368A179A18AA19BA1D1D4DC
:100B700088231CF481E088A7A7C020E03FEF4FE75F
:100B800057E46CA17DA18EA19FA1D0D518160CF0C1
:100B900074C020E030E04AE754E46D857E858F859F
:100BA0009889BBD4DC01CB0189A79AA7ABA7BCA7C6
:100BB00020E030E04AEF54E469A57AA58BA59CA516
:100BC000B9D5DC01CB018DA79EA7AFA7B8AB20E0BC
:100BD00030E040E85FE36DA57EA58FA598A999D484
:100BE00088232CF481E090E09AAB89AB3BC020E0F5
:100BF0003FEF4FE757E46DA57EA58FA598A996D541
:100C000018163CF520E030E040E251E469A57AA5F1
:100C10008BA59CA58FD5DC01CB01BC01CD01E5D412
:100C2000DC01CB019AAB89AB0FC088EC90E09CABA8
:100C30008BAB8BA99CA90197F1F79CAB8BAB89A9D6
:100C40009AA901979AAB89AB89A99AA9892B69F7C7
:100C50003BC06DA57EA58FA598A9C7D4DC01CB01AB
:100C60009AAB89AB89A99AA99EAB8DAB8DA99EA998
:100C70000197F1F79EAB8DAB27C020E030E04FE746
:100C800053E468A179A18AA19BA150D51816A4F4B8
:100C90006CA17DA18EA19FA1A8D4DC01CB0198AF4E
:100CA0008FAB8FA998AD9AAF89AF89AD9AAD0197F7
:100CB000F1F79AAF89AF0EC068A179A18AA19BA173
:100CC00094D4DC01CB0188A788A58BAF8BAD8A9526
:100CD000F1F78BAF89819A8101969A8389838B8101
:100CE0008F5F8B83E6CD80E090E0EB960FB6F894B3
:100CF000DEBF0FBECDBFDF91CF9108951F920F923F
:100D000000905F000F9211242F933F934F935F93B6
:100D10006F937F938F939F93AF93BF93EF93FF93C3
:100D2000CF93DF93CDB7DEB781E08093C50080918C
:100D3000C800882319F08CEA90E08CD10000DF9184
:100D4000CF91FF91EF91BF91AF919F918F917F9143
:100D50006F915F914F913F912F910F9000925F00A3
:100D60000F901F9018951F920F9200905F000F92A6
:100D700011242F933F934F935F936F937F938F93A0
:100D80009F93AF93BF93EF93FF93CF93DF93CDB731
:100D9000DEB78091C800882319F080EB90E05AD12B
:100DA0008BE590E02BE530E0F90120812F77FC0105
:100DB000208381E08093C9000000DF91CF91FF91F3
:100DC000EF91BF91AF919F918F917F916F915F91C3
:100DD0004F913F912F910F9000925F000F901F90C5
:100DE00018951F920F9200905F000F9211242F937D
:100DF0003F934F935F938F939F93EF93FF93CF9383
:100E0000DF93CDB7DEB784E290E0FC012081318131
:100E10008091B800882F90E08217930778F484E2DD
:100E200090E0FC01208131818091B800882F90E012
:100E3000A901481B590BCA010597D8F484E290E038
:100E4000FC01208131818091B800882F90E0281723
:100E50003907B0F48091B800282F30E084E290E0A8
:100E6000FC0180819181A901481B590BCA0105979A
:100E700038F084E290E0FC01808191818093B80099
:100E800081E08093C7000000DF91CF91FF91EF9147
:100E90009F918F915F914F913F912F910F90009271
:100EA0005F000F901F9018951F920F9200905F00A7
:100EB0000F9211248F93CF93DF93CDB7DEB780913C
:100EC000ED008F3F31F08091ED008F5F8093ED005A
:100ED00013C01092ED008091EE008F3F31F08091B1
:100EE000EE008F5F8093EE0007C01092EE008091BD
:100EF000EF008F5F8093EF000000DF91CF918F9123
:100F00000F9000925F000F901F901895CF93DF9382
:100F1000CDB7DEB700008BE290E0FC018081882332
:100F2000D4F78CE290E0FC018081DF91CF910895AD
:100F3000CF93DF9300D000D000D0CDB7DEB79C8335
:100F40008B837E836D831A8219821BC089819A816B
:100F500001969A83898331D0282F8B819C81FC0153
:100F600020838B819C81FC0180818A3029F48B81D4
:100F70009C81FC0110820CC08B819C8101969C831A
:100F80008B8329813A818D819E8182179307F4F6A4
:100F900029813A818D819E818217930724F48B8168
:100FA0009C81FC011082000026960FB6F894DEBFEB
:100FB0000FBECDBFDF91CF910895CF93DF93CDB713
:100FC000DEB78BE290E0FC01808188233CF48CE268
:100FD00090E0FC018081882F90E002C08FEF9FEFAE
:100FE000DF91CF910895CF93DF93CDB7DEB780E443
:100FF00090E0FC01108289E290E023E3FC01208371
:101000008AE290E028E1FC01208380E490E026E879
:10101000FC0120830000DF91CF910895CF93DF93EF
:101020001F92CDB7DEB7898300008BE290E0FC0110
:101030008081882F90E080729927892BB1F38CE210
:1010400090E02981FC01208380E090E00F90DF9107
:10105000CF910895CF93DF9300D0CDB7DEB79A83B9
:1010600089830AC089819A81FC018081D7DF8981C7
:101070009A8101969A83898389819A81FC01808172
:10108000882381F700000F900F90DF91CF91089592
:10109000CF93DF93CDB7DEB780E290E020E2FC0192
:1010A000208381E290E021E230E0F9012081236099
:1010B000FC0120830000DF91CF910895CF93DF934F
:1010C00000D0CDB7DEB78A8386E590E0FC011082C0
:1010D00086E590E024EAFC012083000086E590E0AC
:1010E000FC0180818823D4F781E290E0FC018081BB
:1010F000882F90E0887F9927089711F081E020C021
:1011000083E290E02A81FC01208386E590E024E8D8
:10111000FC012083000086E590E0FC0180818823AB
:10112000D4F781E290E0FC018081887F8983898106
:10113000883129F08981803411F081E001C080E09C
:101140000F900F90DF91CF910895CF93DF931F926F
:10115000CDB7DEB7898383E290E02981FC0120834B
:1011600086E590E024E8FC012083000086E590E01D
:10117000FC0180818823D4F781E290E0FC0180812A
:10118000882F90E0887F9927889711F081E001C02F
:1011900080E00F90DF91CF910895CF93DF93CDB78B
:1011A000DEB786E590E024ECFC012083000086E5B4
:1011B00090E0FC0180818823D4F783E290E0FC0179
:1011C0008081DF91CF910895CF93DF93CDB7DEB7C4
:1011D00086E590E024E8FC012083000086E590E0AD
:1011E000FC0180818823D4F783E290E0FC018081B8
:1011F000DF91CF910895CF93DF93CDB7DEB72797D7
:101200000FB6F894DEBF0FBECDBF8B837D836C839A
:101210005F834E838B8152DF882311F081E01EC0F3
:101220001A82198212C02C813D8189819A81820F94
:10123000931FFC01808189DF882311F081E00EC0BB
:1012400089819A8101969A83898329813A818E8145
:101250009F812817390738F3EAD080E027960FB628
:10126000F894DEBF0FBECDBFDF91CF9108950F93ED
:101270001F93CF93DF93CDB7DEB727970FB6F894C0
:10128000DEBF0FBECDBF8B837D836C835F834E83B8
:101290008B81816013DF882311F081E029C01A82DD
:1012A00019820FC02C813D8189819A818901080FA3
:1012B000191F73DFF801808389819A8101969A83CF
:1012C00089838E819F819C012150310989819A8176
:1012D0008217930738F38E819F8101972C813D817E
:1012E0008901080F191F70DFF8018083A0D080E00A
:1012F00027960FB6F894DEBF0FBECDBFDF91CF911A
:101300001F910F910895CF93DF93CDB7DEB7289744
:101310000FB6F894DEBF0FBECDBF8B836C835E83A8
:101320004D8338872F838B81C9DE882311F081E0BC
:1013300020C08C810ADF1A82198212C02D813E8161
:1013400089819A81820F931FFC018081FEDE8823B0
:1013500011F081E00EC089819A8101969A83898378
:1013600029813A818F8198852817390738F35FD012
:1013700080E028960FB6F894DEBF0FBECDBFDF9198
:10138000CF9108950F931F93CF93DF93CDB7DEB71F
:1013900028970FB6F894DEBF0FBECDBF8B836C834A
:1013A0005E834D8338872F838B8188DE882311F0FD
:1013B00081E032C08C81C9DE8B8181607FDE882331
:1013C00011F081E029C01A8219820FC02D813E815F
:1013D00089819A818901080F191FDFDEF801808356
:1013E00089819A8101969A8389838F8198859C014E
:1013F0002150310989819A818217930738F38F81AF
:10140000988501972D813E818901080F191FDCDE27
:10141000F80180830CD080E028960FB6F894DEBFE8
:101420000FBECDBFDF91CF911F910F910895CF9344
:10143000DF93CDB7DEB786E590E024E9FC01208399
:101440000000DF91CF9108955058BB27AA270ED0F6
:1014500033C124D130F029D120F031F49F3F11F471
:101460001EF419C10EF4E095E7FB0FC1E92F35D149
:1014700080F3BA17620773078407950718F071F4B1
:101480009EF54DC10EF4E0950B2EBA2FA02D0B0149
:10149000B90190010C01CA01A0011124FF27591BB9
:1014A00099F0593F50F4503E68F11A16F040A22FBF
:1014B000232F342F4427585FF3CF46953795279530
:1014C000A795F0405395C9F77EF41F16BA0B620B2F
:1014D000730B840BBAF09150A1F0FF0FBB1F661F76
:1014E000771F881FC2F70EC0BA0F621F731F841FB9
:1014F00048F4879577956795B795F7959E3F08F0DF
:10150000B3CF9395880F08F09927EE0F979587959D
:10151000089597D008F481E008950CD0CDC0C5D0CF
:1015200040F0BCD030F021F45F3F19F0AEC0511153
:10153000F7C0B1C0D2D098F39923C9F35523B1F3C2
:10154000951B550BBB27AA2762177307840738F032
:101550009F5F5F4F220F331F441FAA1FA9F333D091
:101560000E2E3AF0E0E830D091505040E695001C45
:10157000CAF729D0FE2F27D0660F771F881FBB1F01
:10158000261737074807AB07B0E809F0BB0B802DDB
:10159000BF01FF2793585F4F2AF09E3F510568F027
:1015A00074C0BEC05F3FECF3983EDCF38695779540
:1015B0006795B795F7959F5FC9F7880F911D969529
:1015C000879597F90895E1E0660F771F881FBB1F85
:1015D000621773078407BA0720F0621B730B840B32
:1015E000BA0BEE1F88F7E09508957FD088F09F57DB
:1015F00090F0B92F9927B751A0F0D1F0660F771F5F
:10160000881F991F1AF0BA95C9F712C0B13081F03E
:1016100086D0B1E0089583C0672F782F8827B85F00
:1016200039F0B93FCCF3869577956795B395D9F79F
:101630003EF490958095709561957F4F8F4F9F4FA9
:101640000895990F0008550FAA0BE0E8FEEF161653
:101650001706E807F907C0F012161306E407F507A6
:1016600098F0621B730B840B950B39F40A2661F01A
:10167000232B242B252B21F408950A2609F4A140BD
:10168000A6958FEF811D811D089597F99F6780E8CA
:1016900070E060E008959FEF80EC089500240A94C4
:1016A0001616170618060906089500240A9412163D
:1016B0001306140605060895092E0394000C11F470
:1016C000882352F0BB0F40F4BF2B11F460FF04C01D
:1016D0006F5F7F4F8F4F9F4F089557FD9058440F76
:1016E000551F59F05F3F71F04795880F97FB991F81
:1016F00061F09F3F79F0879508951216130614063E
:10170000551FF2CF4695F1DF08C0161617061806CA
:10171000991FF1CF86957105610508940895E894A5
:10172000BB2766277727CB0197F908958ADF08F44E
:101730008FEF08950BD0C0CFB1DF28F0B6DF18F0DF
:10174000952309F0A2CFA7CF1124EACFC6DFA0F3DB
:10175000959FD1F3950F50E0551F629FF001729F46
:10176000BB27F00DB11D639FAA27F00DB11DAA1F65
:10177000649F6627B00DA11D661F829F2227B00DB2
:10178000A11D621F739FB00DA11D621F839FA00D3D
:10179000611D221F749F3327A00D611D231F849F8D
:1017A000600D211D822F762F6A2F11249F575040E4
:1017B0008AF0E1F088234AF0EE0FFF1FBB1F661F7F
:1017C000771F881F91505040A9F79E3F510570F038
:1017D0005CCFA6CF5F3FECF3983EDCF38695779520
:1017E0006795B795F795E7959F5FC1F7FE2B880F33
:1017F000911D9695879597F90895AA1BBB1B51E1FA
:1018000007C0AA1FBB1FA617B70710F0A61BB70B70
:10181000881F991F5A95A9F780959095BC01CD0115
:101820000895A29FB001B39FC001A39F01D0B29FB2
:10183000700D811D1124911D08958F929F92AF927A
:10184000BF92CF92DF92EF92FF92CF93DF93EC01A2
:10185000688179818A819B81611571058105910576
:1018600021F464E279ED8BE597E02DE133EF41E07F
:1018700050E005D349015A019B01AC01A7EAB1E44C
:101880001AD36B017C01ACEEB4EFA50194011FD318
:10189000DC01CB018C0D9D1DAE1DBF1DB7FF03C02C
:1018A0000197A109B04888839983AA83BB839F7756
:1018B000DF91CF91FF90EF90DF90CF90BF90AF90EE
:1018C0009F908F900895B9DF089580E690E0B5DF8E
:1018D0000895A0E0B0E08093600090936100A09331
:1018E0006200B09363000895AEE0B0E0E9E7FCE089
:1018F00000C30D891E8986E08C831A8309838FEFCC
:101900009FE79E838D83AE01475E5F4F6F89788D21
:10191000CE01019608D0EF81F885E00FF11F10820B
:101920002E96E4E002C3ABE0B0E0E8E9FCE0D3C20D
:101930006C017B018A01FC0117821682838181FF81
:10194000BFC1CE0101963C01F6019381F70193FDE1
:10195000859193FF81917F01882309F4ADC1853280
:1019600039F493FD859193FF81917F01853221F4B4
:10197000B60190E0C0D1E8CF912C212C312CFFE1B1
:10198000F315D8F08B3279F038F4803279F0833265
:10199000A1F4232D20611DC08D3261F0803369F4E4
:1019A000232D216016C0832D8260382EE32DE46044
:1019B0003E2E2AC0F32DF8601DC037FC2DC020ED4F
:1019C000280F2A3040F08E32B9F436FC75C1232D31
:1019D0002064322E19C036FE06C08AE0989E200D83
:1019E0001124922E11C0EAE02E9E200D1124222EE9
:1019F000F32DF0623F2E08C08C3621F4832D8068D1
:101A0000382E02C0883641F4F70193FD859193FF8B
:101A100081917F018111B3CF982F9F7D9554933091
:101A200028F40C5F1F4F9FE399830DC0833631F07C
:101A3000833771F0833509F055C020C0F8018081EB
:101A400089830E5F1F4F88248394912C530112C009
:101A50002801F2E04F0E511CF801A080B18036FE43
:101A600003C0692D70E002C06FEF7FEFC50138D170
:101A70004C018201F32DFF773F2E15C0280122E093
:101A8000420E511CF801A080B18036FE03C0692DC2
:101A900070E002C06FEF7FEFC50117D14C01F32D4D
:101AA000F0683F2E820133FC19C0822D90E0881629
:101AB0009906A0F4B60180E290E01DD12A94F5CFFA
:101AC000F50137FC859137FE81915F01B60190E009
:101AD00012D121102A9421E0821A910881149104D4
:101AE00079F7E1C0843611F0893639F5F80137FE0F
:101AF00007C060817181828193810C5F1F4F08C094
:101B000060817181072E000C880B990B0E5F1F4FAF
:101B1000F32DFF763F2E97FF09C090958095709525
:101B200061957F4F8F4F9F4FF0683F2E2AE030E046
:101B3000A3011DD1882E861844C0853731F4232D8A
:101B40002F7EB22E2AE030E025C0932D997FB92E4A
:101B50008F36C1F018F4883579F0AEC0803719F0AF
:101B6000883721F0A9C0E92FE061BE2EB4FE0DC078
:101B7000FB2DF460BF2E09C034FE0AC0292F266059
:101B8000B22E06C028E030E005C020E130E002C0FF
:101B900020E132E0F801B7FE07C0608171818281E7
:101BA00093810C5F1F4F06C06081718180E090E0DF
:101BB0000E5F1F4FA301DBD0882E8618FB2DFF7709
:101BC0003F2E36FE0DC0232D2E7FA22E891458F4F1
:101BD00034FE0BC032FC09C0832D8E7EA82E05C0BA
:101BE000B82CA32C03C0B82C01C0B92CA4FE0FC084
:101BF000FE01E80DF11D8081803321F49A2D997E3C
:101C0000A92E09C0A2FE06C0B394B39404C08A2DC5
:101C1000867809F0B394A3FC10C0A0FE06C0B214ED
:101C200080F4280C922C9B180DC0B21458F4B60105
:101C300080E290E060D0B394F8CFB21418F42B187F
:101C400002C0982C212CA4FE0FC0B60180E390E0C6
:101C500052D0A2FE16C0A1FC03C088E790E002C0EB
:101C600088E590E0B6010CC08A2D867851F0A1FE7F
:101C700002C08BE201C080E2A7FC8DE2B60190E0D9
:101C80003AD0891430F4B60180E390E034D09A94CD
:101C9000F8CF8A94F301E80DF11D8081B60190E040
:101CA0002AD08110F6CF222009F44ECEB60180E270
:101CB00090E021D02A94F7CFF6018681978102C067
:101CC0008FEF9FEF2B96E2E122C1FC01059061505E
:101CD00070400110D8F7809590958E0F9F1F089542
:101CE000FC016150704001900110D8F780959095EB
:101CF0008E0F9F1F08950F931F93CF93DF93FB01C8
:101D0000238121FD03C08FEF9FEF2CC022FF16C05F
:101D100046815781248135814217530744F4A081BD
:101D2000B1819D012F5F3F4F318320838C932681AA
:101D300037812F5F3F4F3783268314C08B01EC011F
:101D4000FB010084F185E02D0995892BE1F6D8018E
:101D500016968D919C911797019617969C938E934A
:101D60001697CE01DF91CF911F910F910895FA013F
:101D7000AA27283051F1203181F1E8946F936E7FCA
:101D80006E5F7F4F8F4F9F4FAF4FB1E03ED0B4E0BB
:101D90003CD0670F781F891F9A1FA11D680F791FFC
:101DA0008A1F911DA11D6A0F711D811D911DA11D0D
:101DB00020D009F468943F912AE0269F112430191D
:101DC000305D3193DEF6CF010895462F4770405DB8
:101DD0004193B3E00FD0C9F7F6CF462F4F70405D67
:101DE0004A3318F0495D31FD4052419302D0A9F7C2
:101DF000EACFB4E0A6959795879577956795BA95BC
:101E0000C9F700976105710508959B01AC010A2E81
:101E100006945795479537952795BA95C9F7620F58
:101E2000731F841F951FA01D0895A8E1B0E042E034
:101E300050E006C00196272F12D010C0DC01CB0164
:101E4000FC01E199FECF06C0FFBBEEBBE09A3196E4
:101E50000DB20D9241505040B8F70895262FE199E8
:101E6000FECF9FBB8EBBE09A01970DB2021631F0F8
:101E70002DBB0FB6F894E29AE19A0FBE0895052E95
:101E800097FB16F400940FD057FD05D05BD007FCEC
:101E900002D046F408C050954095309521953F4FAB
:101EA0004F4F5F4F089590958095709561957F4F46
:101EB0008F4F9F4F0895B5DCA59F900DB49F900D57
:101EC000A49F800D911D11240895B7FFF4CFF3DF77
:101ED000821B930B08952F923F924F925F926F92C5
:101EE0007F928F929F92AF92BF92CF92DF92EF92AA
:101EF000FF920F931F93CF93DF93CDB7DEB7CA1B2B
:101F0000DB0B0FB6F894DEBF0FBECDBF09942A8855
:101F1000398848885F846E847D848C849B84AA84FD
:101F2000B984C884DF80EE80FD800C811B81AA818A
:101F3000B981CE0FD11D0FB6F894DEBF0FBECDBF55
:101F4000ED010895A1E21A2EAA1BBB1BFD010DC0D5
:101F5000AA1FBB1FEE1FFF1FA217B307E407F50759
:101F600020F0A21BB30BE40BF50B661F771F881F35
:101F7000991F1A9469F760957095809590959B01CB
:0C1F8000AC01BD01CF010895F894FFCF23
:101F8C000100000053746172740A00457869740A88
:101F9C000055564C4F2E2056626174203D20256909
:101FAC000A004C6F6767696E670A0025692C256902
:101FBC002C25692C25692C25690A0055564C4F2C6B
:101FCC002056424154203D2025690A0050470A0002
:081FDC00427574746F6E0A0077
:00000001FF
